{"contracts/RPSLS.sol":{"RPSLS":{"abi":[{"inputs":[{"internalType":"bytes32","name":"_move1Hash","type":"bytes32"},{"internalType":"address","name":"_player1","type":"address"},{"internalType":"address","name":"_player2","type":"address"}],"stateMutability":"payable","type":"constructor"},{"anonymous":false,"inputs":[{"indexed":true,"internalType":"address","name":"winner","type":"address"}],"name":"GameSolved","type":"event"},{"anonymous":false,"inputs":[],"name":"GameTied","type":"event"},{"anonymous":false,"inputs":[{"indexed":true,"internalType":"address","name":"fallbackWinner","type":"address"}],"name":"GameTimedOut","type":"event"},{"anonymous":false,"inputs":[{"indexed":true,"internalType":"address","name":"_player2","type":"address"},{"indexed":true,"internalType":"enum RPSLS.Move","name":"_move2","type":"uint8"}],"name":"Player2Played","type":"event"},{"inputs":[],"name":"TIMEOUT_IN_MS","outputs":[{"internalType":"uint256","name":"","type":"uint256"}],"stateMutability":"view","type":"function"},{"inputs":[],"name":"claimTimeout","outputs":[],"stateMutability":"nonpayable","type":"function"},{"inputs":[],"name":"lastTimePlayed","outputs":[{"internalType":"uint256","name":"","type":"uint256"}],"stateMutability":"view","type":"function"},{"inputs":[],"name":"move1","outputs":[{"internalType":"enum RPSLS.Move","name":"","type":"uint8"}],"stateMutability":"view","type":"function"},{"inputs":[],"name":"move2","outputs":[{"internalType":"enum RPSLS.Move","name":"","type":"uint8"}],"stateMutability":"view","type":"function"},{"inputs":[{"internalType":"enum RPSLS.Move","name":"_move2","type":"uint8"}],"name":"play","outputs":[],"stateMutability":"payable","type":"function"},{"inputs":[],"name":"player1","outputs":[{"internalType":"address","name":"","type":"address"}],"stateMutability":"view","type":"function"},{"inputs":[],"name":"player2","outputs":[{"internalType":"address","name":"","type":"address"}],"stateMutability":"view","type":"function"},{"inputs":[{"internalType":"enum RPSLS.Move","name":"_move1","type":"uint8"},{"internalType":"uint256","name":"_salt","type":"uint256"}],"name":"solve","outputs":[],"stateMutability":"nonpayable","type":"function"},{"inputs":[],"name":"stake","outputs":[{"internalType":"uint256","name":"","type":"uint256"}],"stateMutability":"view","type":"function"}],"evm":{"bytecode":{"linkReferences":{},"object":"608060405261012c600555604051620018183803806200181883398181016040528101906200002f919062000173565b3460048190555082600281905550816000806101000a81548173ffffffffffffffffffffffffffffffffffffffff021916908373ffffffffffffffffffffffffffffffffffffffff16021790555080600160006101000a81548173ffffffffffffffffffffffffffffffffffffffff021916908373ffffffffffffffffffffffffffffffffffffffff16021790555042600681905550505050620001cf565b600080fd5b6000819050919050565b620000e881620000d3565b8114620000f457600080fd5b50565b6000815190506200010881620000dd565b92915050565b600073ffffffffffffffffffffffffffffffffffffffff82169050919050565b60006200013b826200010e565b9050919050565b6200014d816200012e565b81146200015957600080fd5b50565b6000815190506200016d8162000142565b92915050565b6000806000606084860312156200018f576200018e620000ce565b5b60006200019f86828701620000f7565b9350506020620001b2868287016200015c565b9250506040620001c5868287016200015c565b9150509250925092565b61163980620001df6000396000f3fe6080604052600436106100915760003560e01c806359a5f12d1161005957806359a5f12d1461014a5780637a6206b014610175578063a5ddec7c146101a0578063c78eb546146101c9578063d30895e4146101f457610091565b80630e1da6c31461009657806333d85d44146100ad5780633a4b66f1146100d8578063470a67f21461010357806353a04b051461012e575b600080fd5b3480156100a257600080fd5b506100ab61021f565b005b3480156100b957600080fd5b506100c26105b0565b6040516100cf9190610e7e565b60405180910390f35b3480156100e457600080fd5b506100ed6105c3565b6040516100fa9190610eb2565b60405180910390f35b34801561010f57600080fd5b506101186105c9565b6040516101259190610eb2565b60405180910390f35b61014860048036038101906101439190610ef7565b6105cf565b005b34801561015657600080fd5b5061015f610717565b60405161016c9190610f65565b60405180910390f35b34801561018157600080fd5b5061018a61073d565b6040516101979190610eb2565b60405180910390f35b3480156101ac57600080fd5b506101c760048036038101906101c29190610fac565b610743565b005b3480156101d557600080fd5b506101de610cc1565b6040516101eb9190610e7e565b60405180910390f35b34801561020057600080fd5b50610209610cd4565b6040516102169190610f65565b60405180910390f35b60008054906101000a900473ffffffffffffffffffffffffffffffffffffffff1673ffffffffffffffffffffffffffffffffffffffff163373ffffffffffffffffffffffffffffffffffffffff1614806102c65750600160009054906101000a900473ffffffffffffffffffffffffffffffffffffffff1673ffffffffffffffffffffffffffffffffffffffff163373ffffffffffffffffffffffffffffffffffffffff16145b610305576040517f08c379a00000000000000000000000000000000000000000000000000000000081526004016102fc9061106f565b60405180910390fd5b60055460065461031591906110be565b4210610356576040517f08c379a000000000000000000000000000000000000000000000000000000000815260040161034d90611160565b60405180910390fd5b600060045490506000600481905550600073ffffffffffffffffffffffffffffffffffffffff16600160009054906101000a900473ffffffffffffffffffffffffffffffffffffffff1673ffffffffffffffffffffffffffffffffffffffff1614156104915760008060009054906101000a900473ffffffffffffffffffffffffffffffffffffffff1673ffffffffffffffffffffffffffffffffffffffff166108fc839081150290604051600060405180830381858888f19350505050905080610427578160048190555061048b565b60008054906101000a900473ffffffffffffffffffffffffffffffffffffffff1673ffffffffffffffffffffffffffffffffffffffff167f2000eb25e7c59aeedac9771b33ebc8c82601204b4b5340c4c1338df7c3dafd2460405160405180910390a25b506105ad565b600060058111156104a5576104a4610e07565b5b600360019054906101000a900460ff1660058111156104c7576104c6610e07565b5b146105ac576000600160009054906101000a900473ffffffffffffffffffffffffffffffffffffffff1673ffffffffffffffffffffffffffffffffffffffff166108fc6002846105179190611180565b9081150290604051600060405180830381858888f1935050505090508061054457816004819055506105aa565b600160009054906101000a900473ffffffffffffffffffffffffffffffffffffffff1673ffffffffffffffffffffffffffffffffffffffff167f2000eb25e7c59aeedac9771b33ebc8c82601204b4b5340c4c1338df7c3dafd2460405160405180910390a25b505b5b50565b600360009054906101000a900460ff1681565b60045481565b60065481565b6004543414610613576040517f08c379a000000000000000000000000000000000000000000000000000000000815260040161060a90611298565b60405180910390fd5b600160009054906101000a900473ffffffffffffffffffffffffffffffffffffffff1673ffffffffffffffffffffffffffffffffffffffff163373ffffffffffffffffffffffffffffffffffffffff161461066d57600080fd5b6000600581111561068157610680610e07565b5b600360019054906101000a900460ff1660058111156106a3576106a2610e07565b5b146106e3576040517f08c379a00000000000000000000000000000000000000000000000000000000081526004016106da90611304565b60405180910390fd5b80600360016101000a81548160ff0219169083600581111561070857610707610e07565b5b02179055504260068190555050565b600160009054906101000a900473ffffffffffffffffffffffffffffffffffffffff1681565b60055481565b60008054906101000a900473ffffffffffffffffffffffffffffffffffffffff1673ffffffffffffffffffffffffffffffffffffffff163373ffffffffffffffffffffffffffffffffffffffff161461079b57600080fd5b600073ffffffffffffffffffffffffffffffffffffffff16600160009054906101000a900473ffffffffffffffffffffffffffffffffffffffff1673ffffffffffffffffffffffffffffffffffffffff16141561082d576040517f08c379a000000000000000000000000000000000000000000000000000000000815260040161082490611396565b60405180910390fd5b6000600581111561084157610840610e07565b5b600360019054906101000a900460ff16600581111561086357610862610e07565b5b14156108a4576040517f08c379a000000000000000000000000000000000000000000000000000000000815260040161089b90611402565b60405180910390fd5b60025482826040516020016108ba929190611479565b6040516020818303038152906040528051906020012014610910576040517f08c379a000000000000000000000000000000000000000000000000000000000815260040161090790611517565b60405180910390fd5b600060045411610955576040517f08c379a000000000000000000000000000000000000000000000000000000000815260040161094c90611583565b60405180910390fd5b81600360006101000a81548160ff0219169083600581111561097a57610979610e07565b5b0217905550600060045490506109ae600360009054906101000a900460ff16600360019054906101000a900460ff16610cf8565b15610a9c57600060048190555060008060009054906101000a900473ffffffffffffffffffffffffffffffffffffffff1673ffffffffffffffffffffffffffffffffffffffff166108fc836002610a059190611180565b9081150290604051600060405180830381858888f19350505050905080610a325781600481905550610a96565b60008054906101000a900473ffffffffffffffffffffffffffffffffffffffff1673ffffffffffffffffffffffffffffffffffffffff167f53509893162d468df35dea1b35dcc82efcdba39f034428814f342839be56ddce60405160405180910390a25b50610cbc565b610ac4600360009054906101000a900460ff16600360019054906101000a900460ff16610cf8565b15610bb55760006004819055506000600160009054906101000a900473ffffffffffffffffffffffffffffffffffffffff1673ffffffffffffffffffffffffffffffffffffffff166108fc836002610b1c9190611180565b9081150290604051600060405180830381858888f19350505050905080610b495781600481905550610baf565b600160009054906101000a900473ffffffffffffffffffffffffffffffffffffffff1673ffffffffffffffffffffffffffffffffffffffff167f53509893162d468df35dea1b35dcc82efcdba39f034428814f342839be56ddce60405160405180910390a25b50610cbb565b60006004819055506000600160009054906101000a900473ffffffffffffffffffffffffffffffffffffffff1673ffffffffffffffffffffffffffffffffffffffff166108fc839081150290604051600060405180830381858888f19350505050905060008060009054906101000a900473ffffffffffffffffffffffffffffffffffffffff1673ffffffffffffffffffffffffffffffffffffffff166108fc849081150290604051600060405180830381858888f1935050505090508180610c7b5750805b610c8b5782600481905550610cb8565b7f518c48f6356ad4fc6a3d373979965b4396a1c578eaabff2e7f7ce750e367e8f660405160405180910390a15b50505b5b505050565b600360019054906101000a900460ff1681565b60008054906101000a900473ffffffffffffffffffffffffffffffffffffffff1681565b6000816005811115610d0d57610d0c610e07565b5b836005811115610d2057610d1f610e07565b5b1415610d2f5760009050610e01565b60006005811115610d4357610d42610e07565b5b836005811115610d5657610d55610e07565b5b1415610d655760009050610e01565b6002826005811115610d7a57610d79610e07565b5b610d8491906115d2565b6002846005811115610d9957610d98610e07565b5b610da391906115d2565b1415610dd757816005811115610dbc57610dbb610e07565b5b836005811115610dcf57610dce610e07565b5b109050610e01565b816005811115610dea57610de9610e07565b5b836005811115610dfd57610dfc610e07565b5b1190505b92915050565b7f4e487b7100000000000000000000000000000000000000000000000000000000600052602160045260246000fd5b60068110610e4757610e46610e07565b5b50565b6000819050610e5882610e36565b919050565b6000610e6882610e4a565b9050919050565b610e7881610e5d565b82525050565b6000602082019050610e936000830184610e6f565b92915050565b6000819050919050565b610eac81610e99565b82525050565b6000602082019050610ec76000830184610ea3565b92915050565b600080fd5b60068110610edf57600080fd5b50565b600081359050610ef181610ed2565b92915050565b600060208284031215610f0d57610f0c610ecd565b5b6000610f1b84828501610ee2565b91505092915050565b600073ffffffffffffffffffffffffffffffffffffffff82169050919050565b6000610f4f82610f24565b9050919050565b610f5f81610f44565b82525050565b6000602082019050610f7a6000830184610f56565b92915050565b610f8981610e99565b8114610f9457600080fd5b50565b600081359050610fa681610f80565b92915050565b60008060408385031215610fc357610fc2610ecd565b5b6000610fd185828601610ee2565b9250506020610fe285828601610f97565b9150509250929050565b600082825260208201905092915050565b7f596f75277265206e6f74206120706c61796572206f6620746869732067616d6560008201527f2e00000000000000000000000000000000000000000000000000000000000000602082015250565b6000611059602183610fec565b915061106482610ffd565b604082019050919050565b600060208201905081810360008301526110888161104c565b9050919050565b7f4e487b7100000000000000000000000000000000000000000000000000000000600052601160045260246000fd5b60006110c982610e99565b91506110d483610e99565b9250827fffffffffffffffffffffffffffffffffffffffffffffffffffffffffffffffff038211156111095761110861108f565b5b828201905092915050565b7f54696d6520686173206e6f742072756e206f7574207965742e00000000000000600082015250565b600061114a601983610fec565b915061115582611114565b602082019050919050565b600060208201905081810360008301526111798161113d565b9050919050565b600061118b82610e99565b915061119683610e99565b9250817fffffffffffffffffffffffffffffffffffffffffffffffffffffffffffffffff04831182151516156111cf576111ce61108f565b5b828202905092915050565b7f496e73756666696369656e742066756e647320666f72206d6f76652e204d616b60008201527f65207375726520796f75207374616b652074686520726571756972656420616d60208201527f6f756e74206f662045544820666f7220746865207472616e73616374696f6e2060408201527f746f20737563636565642e000000000000000000000000000000000000000000606082015250565b6000611282606b83610fec565b915061128d826111da565b608082019050919050565b600060208201905081810360008301526112b181611275565b9050919050565b7f4d6f766520616c726561647920706c6179656400000000000000000000000000600082015250565b60006112ee601383610fec565b91506112f9826112b8565b602082019050919050565b6000602082019050818103600083015261131d816112e1565b9050919050565b7f506c6179657220322073686f756c64206d616b6520686973206d6f766520696e60008201527f206f7264657220746f20736f6c76652074686520726f756e642e000000000000602082015250565b6000611380603a83610fec565b915061138b82611324565b604082019050919050565b600060208201905081810360008301526113af81611373565b9050919050565b7f506c6179657220322073686f756c64206d6f76652066697273742e0000000000600082015250565b60006113ec601b83610fec565b91506113f7826113b6565b602082019050919050565b6000602082019050818103600083015261141b816113df565b9050919050565b60008160f81b9050919050565b600061143a82611422565b9050919050565b61145261144d82610e5d565b61142f565b82525050565b6000819050919050565b61147361146e82610e99565b611458565b82525050565b60006114858285611441565b6001820191506114958284611462565b6020820191508190509392505050565b7f546865206578706f7365642076616c7565206973206e6f74207468652068617360008201527f686564206f6e6521000000000000000000000000000000000000000000000000602082015250565b6000611501602883610fec565b915061150c826114a5565b604082019050919050565b60006020820190508181036000830152611530816114f4565b9050919050565b7f57696e6e657220697320616c72656164792064657465726d696e65642e000000600082015250565b600061156d601d83610fec565b915061157882611537565b602082019050919050565b6000602082019050818103600083015261159c81611560565b9050919050565b7f4e487b7100000000000000000000000000000000000000000000000000000000600052601260045260246000fd5b60006115dd82610e99565b91506115e883610e99565b9250826115f8576115f76115a3565b5b82820690509291505056fea264697066735822122081236b71f6eae25cca18bc4e9e850c850e9553975620c92d7a1629b88320369864736f6c634300080c0033","opcodes":"PUSH1 0x80 PUSH1 0x40 MSTORE PUSH2 0x12C PUSH1 0x5 SSTORE PUSH1 0x40 MLOAD PUSH3 0x1818 CODESIZE SUB DUP1 PUSH3 0x1818 DUP4 CODECOPY DUP2 DUP2 ADD PUSH1 0x40 MSTORE DUP2 ADD SWAP1 PUSH3 0x2F SWAP2 SWAP1 PUSH3 0x173 JUMP JUMPDEST CALLVALUE PUSH1 0x4 DUP2 SWAP1 SSTORE POP DUP3 PUSH1 0x2 DUP2 SWAP1 SSTORE POP DUP2 PUSH1 0x0 DUP1 PUSH2 0x100 EXP DUP2 SLOAD DUP2 PUSH20 0xFFFFFFFFFFFFFFFFFFFFFFFFFFFFFFFFFFFFFFFF MUL NOT AND SWAP1 DUP4 PUSH20 0xFFFFFFFFFFFFFFFFFFFFFFFFFFFFFFFFFFFFFFFF AND MUL OR SWAP1 SSTORE POP DUP1 PUSH1 0x1 PUSH1 0x0 PUSH2 0x100 EXP DUP2 SLOAD DUP2 PUSH20 0xFFFFFFFFFFFFFFFFFFFFFFFFFFFFFFFFFFFFFFFF MUL NOT AND SWAP1 DUP4 PUSH20 0xFFFFFFFFFFFFFFFFFFFFFFFFFFFFFFFFFFFFFFFF AND MUL OR SWAP1 SSTORE POP TIMESTAMP PUSH1 0x6 DUP2 SWAP1 SSTORE POP POP POP POP PUSH3 0x1CF JUMP JUMPDEST PUSH1 0x0 DUP1 REVERT JUMPDEST PUSH1 0x0 DUP2 SWAP1 POP SWAP2 SWAP1 POP JUMP JUMPDEST PUSH3 0xE8 DUP2 PUSH3 0xD3 JUMP JUMPDEST DUP2 EQ PUSH3 0xF4 JUMPI PUSH1 0x0 DUP1 REVERT JUMPDEST POP JUMP JUMPDEST PUSH1 0x0 DUP2 MLOAD SWAP1 POP PUSH3 0x108 DUP2 PUSH3 0xDD JUMP JUMPDEST SWAP3 SWAP2 POP POP JUMP JUMPDEST PUSH1 0x0 PUSH20 0xFFFFFFFFFFFFFFFFFFFFFFFFFFFFFFFFFFFFFFFF DUP3 AND SWAP1 POP SWAP2 SWAP1 POP JUMP JUMPDEST PUSH1 0x0 PUSH3 0x13B DUP3 PUSH3 0x10E JUMP JUMPDEST SWAP1 POP SWAP2 SWAP1 POP JUMP JUMPDEST PUSH3 0x14D DUP2 PUSH3 0x12E JUMP JUMPDEST DUP2 EQ PUSH3 0x159 JUMPI PUSH1 0x0 DUP1 REVERT JUMPDEST POP JUMP JUMPDEST PUSH1 0x0 DUP2 MLOAD SWAP1 POP PUSH3 0x16D DUP2 PUSH3 0x142 JUMP JUMPDEST SWAP3 SWAP2 POP POP JUMP JUMPDEST PUSH1 0x0 DUP1 PUSH1 0x0 PUSH1 0x60 DUP5 DUP7 SUB SLT ISZERO PUSH3 0x18F JUMPI PUSH3 0x18E PUSH3 0xCE JUMP JUMPDEST JUMPDEST PUSH1 0x0 PUSH3 0x19F DUP7 DUP3 DUP8 ADD PUSH3 0xF7 JUMP JUMPDEST SWAP4 POP POP PUSH1 0x20 PUSH3 0x1B2 DUP7 DUP3 DUP8 ADD PUSH3 0x15C JUMP JUMPDEST SWAP3 POP POP PUSH1 0x40 PUSH3 0x1C5 DUP7 DUP3 DUP8 ADD PUSH3 0x15C JUMP JUMPDEST SWAP2 POP POP SWAP3 POP SWAP3 POP SWAP3 JUMP JUMPDEST PUSH2 0x1639 DUP1 PUSH3 0x1DF PUSH1 0x0 CODECOPY PUSH1 0x0 RETURN INVALID PUSH1 0x80 PUSH1 0x40 MSTORE PUSH1 0x4 CALLDATASIZE LT PUSH2 0x91 JUMPI PUSH1 0x0 CALLDATALOAD PUSH1 0xE0 SHR DUP1 PUSH4 0x59A5F12D GT PUSH2 0x59 JUMPI DUP1 PUSH4 0x59A5F12D EQ PUSH2 0x14A JUMPI DUP1 PUSH4 0x7A6206B0 EQ PUSH2 0x175 JUMPI DUP1 PUSH4 0xA5DDEC7C EQ PUSH2 0x1A0 JUMPI DUP1 PUSH4 0xC78EB546 EQ PUSH2 0x1C9 JUMPI DUP1 PUSH4 0xD30895E4 EQ PUSH2 0x1F4 JUMPI PUSH2 0x91 JUMP JUMPDEST DUP1 PUSH4 0xE1DA6C3 EQ PUSH2 0x96 JUMPI DUP1 PUSH4 0x33D85D44 EQ PUSH2 0xAD JUMPI DUP1 PUSH4 0x3A4B66F1 EQ PUSH2 0xD8 JUMPI DUP1 PUSH4 0x470A67F2 EQ PUSH2 0x103 JUMPI DUP1 PUSH4 0x53A04B05 EQ PUSH2 0x12E JUMPI JUMPDEST PUSH1 0x0 DUP1 REVERT JUMPDEST CALLVALUE DUP1 ISZERO PUSH2 0xA2 JUMPI PUSH1 0x0 DUP1 REVERT JUMPDEST POP PUSH2 0xAB PUSH2 0x21F JUMP JUMPDEST STOP JUMPDEST CALLVALUE DUP1 ISZERO PUSH2 0xB9 JUMPI PUSH1 0x0 DUP1 REVERT JUMPDEST POP PUSH2 0xC2 PUSH2 0x5B0 JUMP JUMPDEST PUSH1 0x40 MLOAD PUSH2 0xCF SWAP2 SWAP1 PUSH2 0xE7E JUMP JUMPDEST PUSH1 0x40 MLOAD DUP1 SWAP2 SUB SWAP1 RETURN JUMPDEST CALLVALUE DUP1 ISZERO PUSH2 0xE4 JUMPI PUSH1 0x0 DUP1 REVERT JUMPDEST POP PUSH2 0xED PUSH2 0x5C3 JUMP JUMPDEST PUSH1 0x40 MLOAD PUSH2 0xFA SWAP2 SWAP1 PUSH2 0xEB2 JUMP JUMPDEST PUSH1 0x40 MLOAD DUP1 SWAP2 SUB SWAP1 RETURN JUMPDEST CALLVALUE DUP1 ISZERO PUSH2 0x10F JUMPI PUSH1 0x0 DUP1 REVERT JUMPDEST POP PUSH2 0x118 PUSH2 0x5C9 JUMP JUMPDEST PUSH1 0x40 MLOAD PUSH2 0x125 SWAP2 SWAP1 PUSH2 0xEB2 JUMP JUMPDEST PUSH1 0x40 MLOAD DUP1 SWAP2 SUB SWAP1 RETURN JUMPDEST PUSH2 0x148 PUSH1 0x4 DUP1 CALLDATASIZE SUB DUP2 ADD SWAP1 PUSH2 0x143 SWAP2 SWAP1 PUSH2 0xEF7 JUMP JUMPDEST PUSH2 0x5CF JUMP JUMPDEST STOP JUMPDEST CALLVALUE DUP1 ISZERO PUSH2 0x156 JUMPI PUSH1 0x0 DUP1 REVERT JUMPDEST POP PUSH2 0x15F PUSH2 0x717 JUMP JUMPDEST PUSH1 0x40 MLOAD PUSH2 0x16C SWAP2 SWAP1 PUSH2 0xF65 JUMP JUMPDEST PUSH1 0x40 MLOAD DUP1 SWAP2 SUB SWAP1 RETURN JUMPDEST CALLVALUE DUP1 ISZERO PUSH2 0x181 JUMPI PUSH1 0x0 DUP1 REVERT JUMPDEST POP PUSH2 0x18A PUSH2 0x73D JUMP JUMPDEST PUSH1 0x40 MLOAD PUSH2 0x197 SWAP2 SWAP1 PUSH2 0xEB2 JUMP JUMPDEST PUSH1 0x40 MLOAD DUP1 SWAP2 SUB SWAP1 RETURN JUMPDEST CALLVALUE DUP1 ISZERO PUSH2 0x1AC JUMPI PUSH1 0x0 DUP1 REVERT JUMPDEST POP PUSH2 0x1C7 PUSH1 0x4 DUP1 CALLDATASIZE SUB DUP2 ADD SWAP1 PUSH2 0x1C2 SWAP2 SWAP1 PUSH2 0xFAC JUMP JUMPDEST PUSH2 0x743 JUMP JUMPDEST STOP JUMPDEST CALLVALUE DUP1 ISZERO PUSH2 0x1D5 JUMPI PUSH1 0x0 DUP1 REVERT JUMPDEST POP PUSH2 0x1DE PUSH2 0xCC1 JUMP JUMPDEST PUSH1 0x40 MLOAD PUSH2 0x1EB SWAP2 SWAP1 PUSH2 0xE7E JUMP JUMPDEST PUSH1 0x40 MLOAD DUP1 SWAP2 SUB SWAP1 RETURN JUMPDEST CALLVALUE DUP1 ISZERO PUSH2 0x200 JUMPI PUSH1 0x0 DUP1 REVERT JUMPDEST POP PUSH2 0x209 PUSH2 0xCD4 JUMP JUMPDEST PUSH1 0x40 MLOAD PUSH2 0x216 SWAP2 SWAP1 PUSH2 0xF65 JUMP JUMPDEST PUSH1 0x40 MLOAD DUP1 SWAP2 SUB SWAP1 RETURN JUMPDEST PUSH1 0x0 DUP1 SLOAD SWAP1 PUSH2 0x100 EXP SWAP1 DIV PUSH20 0xFFFFFFFFFFFFFFFFFFFFFFFFFFFFFFFFFFFFFFFF AND PUSH20 0xFFFFFFFFFFFFFFFFFFFFFFFFFFFFFFFFFFFFFFFF AND CALLER PUSH20 0xFFFFFFFFFFFFFFFFFFFFFFFFFFFFFFFFFFFFFFFF AND EQ DUP1 PUSH2 0x2C6 JUMPI POP PUSH1 0x1 PUSH1 0x0 SWAP1 SLOAD SWAP1 PUSH2 0x100 EXP SWAP1 DIV PUSH20 0xFFFFFFFFFFFFFFFFFFFFFFFFFFFFFFFFFFFFFFFF AND PUSH20 0xFFFFFFFFFFFFFFFFFFFFFFFFFFFFFFFFFFFFFFFF AND CALLER PUSH20 0xFFFFFFFFFFFFFFFFFFFFFFFFFFFFFFFFFFFFFFFF AND EQ JUMPDEST PUSH2 0x305 JUMPI PUSH1 0x40 MLOAD PUSH32 0x8C379A000000000000000000000000000000000000000000000000000000000 DUP2 MSTORE PUSH1 0x4 ADD PUSH2 0x2FC SWAP1 PUSH2 0x106F JUMP JUMPDEST PUSH1 0x40 MLOAD DUP1 SWAP2 SUB SWAP1 REVERT JUMPDEST PUSH1 0x5 SLOAD PUSH1 0x6 SLOAD PUSH2 0x315 SWAP2 SWAP1 PUSH2 0x10BE JUMP JUMPDEST TIMESTAMP LT PUSH2 0x356 JUMPI PUSH1 0x40 MLOAD PUSH32 0x8C379A000000000000000000000000000000000000000000000000000000000 DUP2 MSTORE PUSH1 0x4 ADD PUSH2 0x34D SWAP1 PUSH2 0x1160 JUMP JUMPDEST PUSH1 0x40 MLOAD DUP1 SWAP2 SUB SWAP1 REVERT JUMPDEST PUSH1 0x0 PUSH1 0x4 SLOAD SWAP1 POP PUSH1 0x0 PUSH1 0x4 DUP2 SWAP1 SSTORE POP PUSH1 0x0 PUSH20 0xFFFFFFFFFFFFFFFFFFFFFFFFFFFFFFFFFFFFFFFF AND PUSH1 0x1 PUSH1 0x0 SWAP1 SLOAD SWAP1 PUSH2 0x100 EXP SWAP1 DIV PUSH20 0xFFFFFFFFFFFFFFFFFFFFFFFFFFFFFFFFFFFFFFFF AND PUSH20 0xFFFFFFFFFFFFFFFFFFFFFFFFFFFFFFFFFFFFFFFF AND EQ ISZERO PUSH2 0x491 JUMPI PUSH1 0x0 DUP1 PUSH1 0x0 SWAP1 SLOAD SWAP1 PUSH2 0x100 EXP SWAP1 DIV PUSH20 0xFFFFFFFFFFFFFFFFFFFFFFFFFFFFFFFFFFFFFFFF AND PUSH20 0xFFFFFFFFFFFFFFFFFFFFFFFFFFFFFFFFFFFFFFFF AND PUSH2 0x8FC DUP4 SWAP1 DUP2 ISZERO MUL SWAP1 PUSH1 0x40 MLOAD PUSH1 0x0 PUSH1 0x40 MLOAD DUP1 DUP4 SUB DUP2 DUP6 DUP9 DUP9 CALL SWAP4 POP POP POP POP SWAP1 POP DUP1 PUSH2 0x427 JUMPI DUP2 PUSH1 0x4 DUP2 SWAP1 SSTORE POP PUSH2 0x48B JUMP JUMPDEST PUSH1 0x0 DUP1 SLOAD SWAP1 PUSH2 0x100 EXP SWAP1 DIV PUSH20 0xFFFFFFFFFFFFFFFFFFFFFFFFFFFFFFFFFFFFFFFF AND PUSH20 0xFFFFFFFFFFFFFFFFFFFFFFFFFFFFFFFFFFFFFFFF AND PUSH32 0x2000EB25E7C59AEEDAC9771B33EBC8C82601204B4B5340C4C1338DF7C3DAFD24 PUSH1 0x40 MLOAD PUSH1 0x40 MLOAD DUP1 SWAP2 SUB SWAP1 LOG2 JUMPDEST POP PUSH2 0x5AD JUMP JUMPDEST PUSH1 0x0 PUSH1 0x5 DUP2 GT ISZERO PUSH2 0x4A5 JUMPI PUSH2 0x4A4 PUSH2 0xE07 JUMP JUMPDEST JUMPDEST PUSH1 0x3 PUSH1 0x1 SWAP1 SLOAD SWAP1 PUSH2 0x100 EXP SWAP1 DIV PUSH1 0xFF AND PUSH1 0x5 DUP2 GT ISZERO PUSH2 0x4C7 JUMPI PUSH2 0x4C6 PUSH2 0xE07 JUMP JUMPDEST JUMPDEST EQ PUSH2 0x5AC JUMPI PUSH1 0x0 PUSH1 0x1 PUSH1 0x0 SWAP1 SLOAD SWAP1 PUSH2 0x100 EXP SWAP1 DIV PUSH20 0xFFFFFFFFFFFFFFFFFFFFFFFFFFFFFFFFFFFFFFFF AND PUSH20 0xFFFFFFFFFFFFFFFFFFFFFFFFFFFFFFFFFFFFFFFF AND PUSH2 0x8FC PUSH1 0x2 DUP5 PUSH2 0x517 SWAP2 SWAP1 PUSH2 0x1180 JUMP JUMPDEST SWAP1 DUP2 ISZERO MUL SWAP1 PUSH1 0x40 MLOAD PUSH1 0x0 PUSH1 0x40 MLOAD DUP1 DUP4 SUB DUP2 DUP6 DUP9 DUP9 CALL SWAP4 POP POP POP POP SWAP1 POP DUP1 PUSH2 0x544 JUMPI DUP2 PUSH1 0x4 DUP2 SWAP1 SSTORE POP PUSH2 0x5AA JUMP JUMPDEST PUSH1 0x1 PUSH1 0x0 SWAP1 SLOAD SWAP1 PUSH2 0x100 EXP SWAP1 DIV PUSH20 0xFFFFFFFFFFFFFFFFFFFFFFFFFFFFFFFFFFFFFFFF AND PUSH20 0xFFFFFFFFFFFFFFFFFFFFFFFFFFFFFFFFFFFFFFFF AND PUSH32 0x2000EB25E7C59AEEDAC9771B33EBC8C82601204B4B5340C4C1338DF7C3DAFD24 PUSH1 0x40 MLOAD PUSH1 0x40 MLOAD DUP1 SWAP2 SUB SWAP1 LOG2 JUMPDEST POP JUMPDEST JUMPDEST POP JUMP JUMPDEST PUSH1 0x3 PUSH1 0x0 SWAP1 SLOAD SWAP1 PUSH2 0x100 EXP SWAP1 DIV PUSH1 0xFF AND DUP2 JUMP JUMPDEST PUSH1 0x4 SLOAD DUP2 JUMP JUMPDEST PUSH1 0x6 SLOAD DUP2 JUMP JUMPDEST PUSH1 0x4 SLOAD CALLVALUE EQ PUSH2 0x613 JUMPI PUSH1 0x40 MLOAD PUSH32 0x8C379A000000000000000000000000000000000000000000000000000000000 DUP2 MSTORE PUSH1 0x4 ADD PUSH2 0x60A SWAP1 PUSH2 0x1298 JUMP JUMPDEST PUSH1 0x40 MLOAD DUP1 SWAP2 SUB SWAP1 REVERT JUMPDEST PUSH1 0x1 PUSH1 0x0 SWAP1 SLOAD SWAP1 PUSH2 0x100 EXP SWAP1 DIV PUSH20 0xFFFFFFFFFFFFFFFFFFFFFFFFFFFFFFFFFFFFFFFF AND PUSH20 0xFFFFFFFFFFFFFFFFFFFFFFFFFFFFFFFFFFFFFFFF AND CALLER PUSH20 0xFFFFFFFFFFFFFFFFFFFFFFFFFFFFFFFFFFFFFFFF AND EQ PUSH2 0x66D JUMPI PUSH1 0x0 DUP1 REVERT JUMPDEST PUSH1 0x0 PUSH1 0x5 DUP2 GT ISZERO PUSH2 0x681 JUMPI PUSH2 0x680 PUSH2 0xE07 JUMP JUMPDEST JUMPDEST PUSH1 0x3 PUSH1 0x1 SWAP1 SLOAD SWAP1 PUSH2 0x100 EXP SWAP1 DIV PUSH1 0xFF AND PUSH1 0x5 DUP2 GT ISZERO PUSH2 0x6A3 JUMPI PUSH2 0x6A2 PUSH2 0xE07 JUMP JUMPDEST JUMPDEST EQ PUSH2 0x6E3 JUMPI PUSH1 0x40 MLOAD PUSH32 0x8C379A000000000000000000000000000000000000000000000000000000000 DUP2 MSTORE PUSH1 0x4 ADD PUSH2 0x6DA SWAP1 PUSH2 0x1304 JUMP JUMPDEST PUSH1 0x40 MLOAD DUP1 SWAP2 SUB SWAP1 REVERT JUMPDEST DUP1 PUSH1 0x3 PUSH1 0x1 PUSH2 0x100 EXP DUP2 SLOAD DUP2 PUSH1 0xFF MUL NOT AND SWAP1 DUP4 PUSH1 0x5 DUP2 GT ISZERO PUSH2 0x708 JUMPI PUSH2 0x707 PUSH2 0xE07 JUMP JUMPDEST JUMPDEST MUL OR SWAP1 SSTORE POP TIMESTAMP PUSH1 0x6 DUP2 SWAP1 SSTORE POP POP JUMP JUMPDEST PUSH1 0x1 PUSH1 0x0 SWAP1 SLOAD SWAP1 PUSH2 0x100 EXP SWAP1 DIV PUSH20 0xFFFFFFFFFFFFFFFFFFFFFFFFFFFFFFFFFFFFFFFF AND DUP2 JUMP JUMPDEST PUSH1 0x5 SLOAD DUP2 JUMP JUMPDEST PUSH1 0x0 DUP1 SLOAD SWAP1 PUSH2 0x100 EXP SWAP1 DIV PUSH20 0xFFFFFFFFFFFFFFFFFFFFFFFFFFFFFFFFFFFFFFFF AND PUSH20 0xFFFFFFFFFFFFFFFFFFFFFFFFFFFFFFFFFFFFFFFF AND CALLER PUSH20 0xFFFFFFFFFFFFFFFFFFFFFFFFFFFFFFFFFFFFFFFF AND EQ PUSH2 0x79B JUMPI PUSH1 0x0 DUP1 REVERT JUMPDEST PUSH1 0x0 PUSH20 0xFFFFFFFFFFFFFFFFFFFFFFFFFFFFFFFFFFFFFFFF AND PUSH1 0x1 PUSH1 0x0 SWAP1 SLOAD SWAP1 PUSH2 0x100 EXP SWAP1 DIV PUSH20 0xFFFFFFFFFFFFFFFFFFFFFFFFFFFFFFFFFFFFFFFF AND PUSH20 0xFFFFFFFFFFFFFFFFFFFFFFFFFFFFFFFFFFFFFFFF AND EQ ISZERO PUSH2 0x82D JUMPI PUSH1 0x40 MLOAD PUSH32 0x8C379A000000000000000000000000000000000000000000000000000000000 DUP2 MSTORE PUSH1 0x4 ADD PUSH2 0x824 SWAP1 PUSH2 0x1396 JUMP JUMPDEST PUSH1 0x40 MLOAD DUP1 SWAP2 SUB SWAP1 REVERT JUMPDEST PUSH1 0x0 PUSH1 0x5 DUP2 GT ISZERO PUSH2 0x841 JUMPI PUSH2 0x840 PUSH2 0xE07 JUMP JUMPDEST JUMPDEST PUSH1 0x3 PUSH1 0x1 SWAP1 SLOAD SWAP1 PUSH2 0x100 EXP SWAP1 DIV PUSH1 0xFF AND PUSH1 0x5 DUP2 GT ISZERO PUSH2 0x863 JUMPI PUSH2 0x862 PUSH2 0xE07 JUMP JUMPDEST JUMPDEST EQ ISZERO PUSH2 0x8A4 JUMPI PUSH1 0x40 MLOAD PUSH32 0x8C379A000000000000000000000000000000000000000000000000000000000 DUP2 MSTORE PUSH1 0x4 ADD PUSH2 0x89B SWAP1 PUSH2 0x1402 JUMP JUMPDEST PUSH1 0x40 MLOAD DUP1 SWAP2 SUB SWAP1 REVERT JUMPDEST PUSH1 0x2 SLOAD DUP3 DUP3 PUSH1 0x40 MLOAD PUSH1 0x20 ADD PUSH2 0x8BA SWAP3 SWAP2 SWAP1 PUSH2 0x1479 JUMP JUMPDEST PUSH1 0x40 MLOAD PUSH1 0x20 DUP2 DUP4 SUB SUB DUP2 MSTORE SWAP1 PUSH1 0x40 MSTORE DUP1 MLOAD SWAP1 PUSH1 0x20 ADD KECCAK256 EQ PUSH2 0x910 JUMPI PUSH1 0x40 MLOAD PUSH32 0x8C379A000000000000000000000000000000000000000000000000000000000 DUP2 MSTORE PUSH1 0x4 ADD PUSH2 0x907 SWAP1 PUSH2 0x1517 JUMP JUMPDEST PUSH1 0x40 MLOAD DUP1 SWAP2 SUB SWAP1 REVERT JUMPDEST PUSH1 0x0 PUSH1 0x4 SLOAD GT PUSH2 0x955 JUMPI PUSH1 0x40 MLOAD PUSH32 0x8C379A000000000000000000000000000000000000000000000000000000000 DUP2 MSTORE PUSH1 0x4 ADD PUSH2 0x94C SWAP1 PUSH2 0x1583 JUMP JUMPDEST PUSH1 0x40 MLOAD DUP1 SWAP2 SUB SWAP1 REVERT JUMPDEST DUP2 PUSH1 0x3 PUSH1 0x0 PUSH2 0x100 EXP DUP2 SLOAD DUP2 PUSH1 0xFF MUL NOT AND SWAP1 DUP4 PUSH1 0x5 DUP2 GT ISZERO PUSH2 0x97A JUMPI PUSH2 0x979 PUSH2 0xE07 JUMP JUMPDEST JUMPDEST MUL OR SWAP1 SSTORE POP PUSH1 0x0 PUSH1 0x4 SLOAD SWAP1 POP PUSH2 0x9AE PUSH1 0x3 PUSH1 0x0 SWAP1 SLOAD SWAP1 PUSH2 0x100 EXP SWAP1 DIV PUSH1 0xFF AND PUSH1 0x3 PUSH1 0x1 SWAP1 SLOAD SWAP1 PUSH2 0x100 EXP SWAP1 DIV PUSH1 0xFF AND PUSH2 0xCF8 JUMP JUMPDEST ISZERO PUSH2 0xA9C JUMPI PUSH1 0x0 PUSH1 0x4 DUP2 SWAP1 SSTORE POP PUSH1 0x0 DUP1 PUSH1 0x0 SWAP1 SLOAD SWAP1 PUSH2 0x100 EXP SWAP1 DIV PUSH20 0xFFFFFFFFFFFFFFFFFFFFFFFFFFFFFFFFFFFFFFFF AND PUSH20 0xFFFFFFFFFFFFFFFFFFFFFFFFFFFFFFFFFFFFFFFF AND PUSH2 0x8FC DUP4 PUSH1 0x2 PUSH2 0xA05 SWAP2 SWAP1 PUSH2 0x1180 JUMP JUMPDEST SWAP1 DUP2 ISZERO MUL SWAP1 PUSH1 0x40 MLOAD PUSH1 0x0 PUSH1 0x40 MLOAD DUP1 DUP4 SUB DUP2 DUP6 DUP9 DUP9 CALL SWAP4 POP POP POP POP SWAP1 POP DUP1 PUSH2 0xA32 JUMPI DUP2 PUSH1 0x4 DUP2 SWAP1 SSTORE POP PUSH2 0xA96 JUMP JUMPDEST PUSH1 0x0 DUP1 SLOAD SWAP1 PUSH2 0x100 EXP SWAP1 DIV PUSH20 0xFFFFFFFFFFFFFFFFFFFFFFFFFFFFFFFFFFFFFFFF AND PUSH20 0xFFFFFFFFFFFFFFFFFFFFFFFFFFFFFFFFFFFFFFFF AND PUSH32 0x53509893162D468DF35DEA1B35DCC82EFCDBA39F034428814F342839BE56DDCE PUSH1 0x40 MLOAD PUSH1 0x40 MLOAD DUP1 SWAP2 SUB SWAP1 LOG2 JUMPDEST POP PUSH2 0xCBC JUMP JUMPDEST PUSH2 0xAC4 PUSH1 0x3 PUSH1 0x0 SWAP1 SLOAD SWAP1 PUSH2 0x100 EXP SWAP1 DIV PUSH1 0xFF AND PUSH1 0x3 PUSH1 0x1 SWAP1 SLOAD SWAP1 PUSH2 0x100 EXP SWAP1 DIV PUSH1 0xFF AND PUSH2 0xCF8 JUMP JUMPDEST ISZERO PUSH2 0xBB5 JUMPI PUSH1 0x0 PUSH1 0x4 DUP2 SWAP1 SSTORE POP PUSH1 0x0 PUSH1 0x1 PUSH1 0x0 SWAP1 SLOAD SWAP1 PUSH2 0x100 EXP SWAP1 DIV PUSH20 0xFFFFFFFFFFFFFFFFFFFFFFFFFFFFFFFFFFFFFFFF AND PUSH20 0xFFFFFFFFFFFFFFFFFFFFFFFFFFFFFFFFFFFFFFFF AND PUSH2 0x8FC DUP4 PUSH1 0x2 PUSH2 0xB1C SWAP2 SWAP1 PUSH2 0x1180 JUMP JUMPDEST SWAP1 DUP2 ISZERO MUL SWAP1 PUSH1 0x40 MLOAD PUSH1 0x0 PUSH1 0x40 MLOAD DUP1 DUP4 SUB DUP2 DUP6 DUP9 DUP9 CALL SWAP4 POP POP POP POP SWAP1 POP DUP1 PUSH2 0xB49 JUMPI DUP2 PUSH1 0x4 DUP2 SWAP1 SSTORE POP PUSH2 0xBAF JUMP JUMPDEST PUSH1 0x1 PUSH1 0x0 SWAP1 SLOAD SWAP1 PUSH2 0x100 EXP SWAP1 DIV PUSH20 0xFFFFFFFFFFFFFFFFFFFFFFFFFFFFFFFFFFFFFFFF AND PUSH20 0xFFFFFFFFFFFFFFFFFFFFFFFFFFFFFFFFFFFFFFFF AND PUSH32 0x53509893162D468DF35DEA1B35DCC82EFCDBA39F034428814F342839BE56DDCE PUSH1 0x40 MLOAD PUSH1 0x40 MLOAD DUP1 SWAP2 SUB SWAP1 LOG2 JUMPDEST POP PUSH2 0xCBB JUMP JUMPDEST PUSH1 0x0 PUSH1 0x4 DUP2 SWAP1 SSTORE POP PUSH1 0x0 PUSH1 0x1 PUSH1 0x0 SWAP1 SLOAD SWAP1 PUSH2 0x100 EXP SWAP1 DIV PUSH20 0xFFFFFFFFFFFFFFFFFFFFFFFFFFFFFFFFFFFFFFFF AND PUSH20 0xFFFFFFFFFFFFFFFFFFFFFFFFFFFFFFFFFFFFFFFF AND PUSH2 0x8FC DUP4 SWAP1 DUP2 ISZERO MUL SWAP1 PUSH1 0x40 MLOAD PUSH1 0x0 PUSH1 0x40 MLOAD DUP1 DUP4 SUB DUP2 DUP6 DUP9 DUP9 CALL SWAP4 POP POP POP POP SWAP1 POP PUSH1 0x0 DUP1 PUSH1 0x0 SWAP1 SLOAD SWAP1 PUSH2 0x100 EXP SWAP1 DIV PUSH20 0xFFFFFFFFFFFFFFFFFFFFFFFFFFFFFFFFFFFFFFFF AND PUSH20 0xFFFFFFFFFFFFFFFFFFFFFFFFFFFFFFFFFFFFFFFF AND PUSH2 0x8FC DUP5 SWAP1 DUP2 ISZERO MUL SWAP1 PUSH1 0x40 MLOAD PUSH1 0x0 PUSH1 0x40 MLOAD DUP1 DUP4 SUB DUP2 DUP6 DUP9 DUP9 CALL SWAP4 POP POP POP POP SWAP1 POP DUP2 DUP1 PUSH2 0xC7B JUMPI POP DUP1 JUMPDEST PUSH2 0xC8B JUMPI DUP3 PUSH1 0x4 DUP2 SWAP1 SSTORE POP PUSH2 0xCB8 JUMP JUMPDEST PUSH32 0x518C48F6356AD4FC6A3D373979965B4396A1C578EAABFF2E7F7CE750E367E8F6 PUSH1 0x40 MLOAD PUSH1 0x40 MLOAD DUP1 SWAP2 SUB SWAP1 LOG1 JUMPDEST POP POP JUMPDEST JUMPDEST POP POP POP JUMP JUMPDEST PUSH1 0x3 PUSH1 0x1 SWAP1 SLOAD SWAP1 PUSH2 0x100 EXP SWAP1 DIV PUSH1 0xFF AND DUP2 JUMP JUMPDEST PUSH1 0x0 DUP1 SLOAD SWAP1 PUSH2 0x100 EXP SWAP1 DIV PUSH20 0xFFFFFFFFFFFFFFFFFFFFFFFFFFFFFFFFFFFFFFFF AND DUP2 JUMP JUMPDEST PUSH1 0x0 DUP2 PUSH1 0x5 DUP2 GT ISZERO PUSH2 0xD0D JUMPI PUSH2 0xD0C PUSH2 0xE07 JUMP JUMPDEST JUMPDEST DUP4 PUSH1 0x5 DUP2 GT ISZERO PUSH2 0xD20 JUMPI PUSH2 0xD1F PUSH2 0xE07 JUMP JUMPDEST JUMPDEST EQ ISZERO PUSH2 0xD2F JUMPI PUSH1 0x0 SWAP1 POP PUSH2 0xE01 JUMP JUMPDEST PUSH1 0x0 PUSH1 0x5 DUP2 GT ISZERO PUSH2 0xD43 JUMPI PUSH2 0xD42 PUSH2 0xE07 JUMP JUMPDEST JUMPDEST DUP4 PUSH1 0x5 DUP2 GT ISZERO PUSH2 0xD56 JUMPI PUSH2 0xD55 PUSH2 0xE07 JUMP JUMPDEST JUMPDEST EQ ISZERO PUSH2 0xD65 JUMPI PUSH1 0x0 SWAP1 POP PUSH2 0xE01 JUMP JUMPDEST PUSH1 0x2 DUP3 PUSH1 0x5 DUP2 GT ISZERO PUSH2 0xD7A JUMPI PUSH2 0xD79 PUSH2 0xE07 JUMP JUMPDEST JUMPDEST PUSH2 0xD84 SWAP2 SWAP1 PUSH2 0x15D2 JUMP JUMPDEST PUSH1 0x2 DUP5 PUSH1 0x5 DUP2 GT ISZERO PUSH2 0xD99 JUMPI PUSH2 0xD98 PUSH2 0xE07 JUMP JUMPDEST JUMPDEST PUSH2 0xDA3 SWAP2 SWAP1 PUSH2 0x15D2 JUMP JUMPDEST EQ ISZERO PUSH2 0xDD7 JUMPI DUP2 PUSH1 0x5 DUP2 GT ISZERO PUSH2 0xDBC JUMPI PUSH2 0xDBB PUSH2 0xE07 JUMP JUMPDEST JUMPDEST DUP4 PUSH1 0x5 DUP2 GT ISZERO PUSH2 0xDCF JUMPI PUSH2 0xDCE PUSH2 0xE07 JUMP JUMPDEST JUMPDEST LT SWAP1 POP PUSH2 0xE01 JUMP JUMPDEST DUP2 PUSH1 0x5 DUP2 GT ISZERO PUSH2 0xDEA JUMPI PUSH2 0xDE9 PUSH2 0xE07 JUMP JUMPDEST JUMPDEST DUP4 PUSH1 0x5 DUP2 GT ISZERO PUSH2 0xDFD JUMPI PUSH2 0xDFC PUSH2 0xE07 JUMP JUMPDEST JUMPDEST GT SWAP1 POP JUMPDEST SWAP3 SWAP2 POP POP JUMP JUMPDEST PUSH32 0x4E487B7100000000000000000000000000000000000000000000000000000000 PUSH1 0x0 MSTORE PUSH1 0x21 PUSH1 0x4 MSTORE PUSH1 0x24 PUSH1 0x0 REVERT JUMPDEST PUSH1 0x6 DUP2 LT PUSH2 0xE47 JUMPI PUSH2 0xE46 PUSH2 0xE07 JUMP JUMPDEST JUMPDEST POP JUMP JUMPDEST PUSH1 0x0 DUP2 SWAP1 POP PUSH2 0xE58 DUP3 PUSH2 0xE36 JUMP JUMPDEST SWAP2 SWAP1 POP JUMP JUMPDEST PUSH1 0x0 PUSH2 0xE68 DUP3 PUSH2 0xE4A JUMP JUMPDEST SWAP1 POP SWAP2 SWAP1 POP JUMP JUMPDEST PUSH2 0xE78 DUP2 PUSH2 0xE5D JUMP JUMPDEST DUP3 MSTORE POP POP JUMP JUMPDEST PUSH1 0x0 PUSH1 0x20 DUP3 ADD SWAP1 POP PUSH2 0xE93 PUSH1 0x0 DUP4 ADD DUP5 PUSH2 0xE6F JUMP JUMPDEST SWAP3 SWAP2 POP POP JUMP JUMPDEST PUSH1 0x0 DUP2 SWAP1 POP SWAP2 SWAP1 POP JUMP JUMPDEST PUSH2 0xEAC DUP2 PUSH2 0xE99 JUMP JUMPDEST DUP3 MSTORE POP POP JUMP JUMPDEST PUSH1 0x0 PUSH1 0x20 DUP3 ADD SWAP1 POP PUSH2 0xEC7 PUSH1 0x0 DUP4 ADD DUP5 PUSH2 0xEA3 JUMP JUMPDEST SWAP3 SWAP2 POP POP JUMP JUMPDEST PUSH1 0x0 DUP1 REVERT JUMPDEST PUSH1 0x6 DUP2 LT PUSH2 0xEDF JUMPI PUSH1 0x0 DUP1 REVERT JUMPDEST POP JUMP JUMPDEST PUSH1 0x0 DUP2 CALLDATALOAD SWAP1 POP PUSH2 0xEF1 DUP2 PUSH2 0xED2 JUMP JUMPDEST SWAP3 SWAP2 POP POP JUMP JUMPDEST PUSH1 0x0 PUSH1 0x20 DUP3 DUP5 SUB SLT ISZERO PUSH2 0xF0D JUMPI PUSH2 0xF0C PUSH2 0xECD JUMP JUMPDEST JUMPDEST PUSH1 0x0 PUSH2 0xF1B DUP5 DUP3 DUP6 ADD PUSH2 0xEE2 JUMP JUMPDEST SWAP2 POP POP SWAP3 SWAP2 POP POP JUMP JUMPDEST PUSH1 0x0 PUSH20 0xFFFFFFFFFFFFFFFFFFFFFFFFFFFFFFFFFFFFFFFF DUP3 AND SWAP1 POP SWAP2 SWAP1 POP JUMP JUMPDEST PUSH1 0x0 PUSH2 0xF4F DUP3 PUSH2 0xF24 JUMP JUMPDEST SWAP1 POP SWAP2 SWAP1 POP JUMP JUMPDEST PUSH2 0xF5F DUP2 PUSH2 0xF44 JUMP JUMPDEST DUP3 MSTORE POP POP JUMP JUMPDEST PUSH1 0x0 PUSH1 0x20 DUP3 ADD SWAP1 POP PUSH2 0xF7A PUSH1 0x0 DUP4 ADD DUP5 PUSH2 0xF56 JUMP JUMPDEST SWAP3 SWAP2 POP POP JUMP JUMPDEST PUSH2 0xF89 DUP2 PUSH2 0xE99 JUMP JUMPDEST DUP2 EQ PUSH2 0xF94 JUMPI PUSH1 0x0 DUP1 REVERT JUMPDEST POP JUMP JUMPDEST PUSH1 0x0 DUP2 CALLDATALOAD SWAP1 POP PUSH2 0xFA6 DUP2 PUSH2 0xF80 JUMP JUMPDEST SWAP3 SWAP2 POP POP JUMP JUMPDEST PUSH1 0x0 DUP1 PUSH1 0x40 DUP4 DUP6 SUB SLT ISZERO PUSH2 0xFC3 JUMPI PUSH2 0xFC2 PUSH2 0xECD JUMP JUMPDEST JUMPDEST PUSH1 0x0 PUSH2 0xFD1 DUP6 DUP3 DUP7 ADD PUSH2 0xEE2 JUMP JUMPDEST SWAP3 POP POP PUSH1 0x20 PUSH2 0xFE2 DUP6 DUP3 DUP7 ADD PUSH2 0xF97 JUMP JUMPDEST SWAP2 POP POP SWAP3 POP SWAP3 SWAP1 POP JUMP JUMPDEST PUSH1 0x0 DUP3 DUP3 MSTORE PUSH1 0x20 DUP3 ADD SWAP1 POP SWAP3 SWAP2 POP POP JUMP JUMPDEST PUSH32 0x596F75277265206E6F74206120706C61796572206F6620746869732067616D65 PUSH1 0x0 DUP3 ADD MSTORE PUSH32 0x2E00000000000000000000000000000000000000000000000000000000000000 PUSH1 0x20 DUP3 ADD MSTORE POP JUMP JUMPDEST PUSH1 0x0 PUSH2 0x1059 PUSH1 0x21 DUP4 PUSH2 0xFEC JUMP JUMPDEST SWAP2 POP PUSH2 0x1064 DUP3 PUSH2 0xFFD JUMP JUMPDEST PUSH1 0x40 DUP3 ADD SWAP1 POP SWAP2 SWAP1 POP JUMP JUMPDEST PUSH1 0x0 PUSH1 0x20 DUP3 ADD SWAP1 POP DUP2 DUP2 SUB PUSH1 0x0 DUP4 ADD MSTORE PUSH2 0x1088 DUP2 PUSH2 0x104C JUMP JUMPDEST SWAP1 POP SWAP2 SWAP1 POP JUMP JUMPDEST PUSH32 0x4E487B7100000000000000000000000000000000000000000000000000000000 PUSH1 0x0 MSTORE PUSH1 0x11 PUSH1 0x4 MSTORE PUSH1 0x24 PUSH1 0x0 REVERT JUMPDEST PUSH1 0x0 PUSH2 0x10C9 DUP3 PUSH2 0xE99 JUMP JUMPDEST SWAP2 POP PUSH2 0x10D4 DUP4 PUSH2 0xE99 JUMP JUMPDEST SWAP3 POP DUP3 PUSH32 0xFFFFFFFFFFFFFFFFFFFFFFFFFFFFFFFFFFFFFFFFFFFFFFFFFFFFFFFFFFFFFFFF SUB DUP3 GT ISZERO PUSH2 0x1109 JUMPI PUSH2 0x1108 PUSH2 0x108F JUMP JUMPDEST JUMPDEST DUP3 DUP3 ADD SWAP1 POP SWAP3 SWAP2 POP POP JUMP JUMPDEST PUSH32 0x54696D6520686173206E6F742072756E206F7574207965742E00000000000000 PUSH1 0x0 DUP3 ADD MSTORE POP JUMP JUMPDEST PUSH1 0x0 PUSH2 0x114A PUSH1 0x19 DUP4 PUSH2 0xFEC JUMP JUMPDEST SWAP2 POP PUSH2 0x1155 DUP3 PUSH2 0x1114 JUMP JUMPDEST PUSH1 0x20 DUP3 ADD SWAP1 POP SWAP2 SWAP1 POP JUMP JUMPDEST PUSH1 0x0 PUSH1 0x20 DUP3 ADD SWAP1 POP DUP2 DUP2 SUB PUSH1 0x0 DUP4 ADD MSTORE PUSH2 0x1179 DUP2 PUSH2 0x113D JUMP JUMPDEST SWAP1 POP SWAP2 SWAP1 POP JUMP JUMPDEST PUSH1 0x0 PUSH2 0x118B DUP3 PUSH2 0xE99 JUMP JUMPDEST SWAP2 POP PUSH2 0x1196 DUP4 PUSH2 0xE99 JUMP JUMPDEST SWAP3 POP DUP2 PUSH32 0xFFFFFFFFFFFFFFFFFFFFFFFFFFFFFFFFFFFFFFFFFFFFFFFFFFFFFFFFFFFFFFFF DIV DUP4 GT DUP3 ISZERO ISZERO AND ISZERO PUSH2 0x11CF JUMPI PUSH2 0x11CE PUSH2 0x108F JUMP JUMPDEST JUMPDEST DUP3 DUP3 MUL SWAP1 POP SWAP3 SWAP2 POP POP JUMP JUMPDEST PUSH32 0x496E73756666696369656E742066756E647320666F72206D6F76652E204D616B PUSH1 0x0 DUP3 ADD MSTORE PUSH32 0x65207375726520796F75207374616B652074686520726571756972656420616D PUSH1 0x20 DUP3 ADD MSTORE PUSH32 0x6F756E74206F662045544820666F7220746865207472616E73616374696F6E20 PUSH1 0x40 DUP3 ADD MSTORE PUSH32 0x746F20737563636565642E000000000000000000000000000000000000000000 PUSH1 0x60 DUP3 ADD MSTORE POP JUMP JUMPDEST PUSH1 0x0 PUSH2 0x1282 PUSH1 0x6B DUP4 PUSH2 0xFEC JUMP JUMPDEST SWAP2 POP PUSH2 0x128D DUP3 PUSH2 0x11DA JUMP JUMPDEST PUSH1 0x80 DUP3 ADD SWAP1 POP SWAP2 SWAP1 POP JUMP JUMPDEST PUSH1 0x0 PUSH1 0x20 DUP3 ADD SWAP1 POP DUP2 DUP2 SUB PUSH1 0x0 DUP4 ADD MSTORE PUSH2 0x12B1 DUP2 PUSH2 0x1275 JUMP JUMPDEST SWAP1 POP SWAP2 SWAP1 POP JUMP JUMPDEST PUSH32 0x4D6F766520616C726561647920706C6179656400000000000000000000000000 PUSH1 0x0 DUP3 ADD MSTORE POP JUMP JUMPDEST PUSH1 0x0 PUSH2 0x12EE PUSH1 0x13 DUP4 PUSH2 0xFEC JUMP JUMPDEST SWAP2 POP PUSH2 0x12F9 DUP3 PUSH2 0x12B8 JUMP JUMPDEST PUSH1 0x20 DUP3 ADD SWAP1 POP SWAP2 SWAP1 POP JUMP JUMPDEST PUSH1 0x0 PUSH1 0x20 DUP3 ADD SWAP1 POP DUP2 DUP2 SUB PUSH1 0x0 DUP4 ADD MSTORE PUSH2 0x131D DUP2 PUSH2 0x12E1 JUMP JUMPDEST SWAP1 POP SWAP2 SWAP1 POP JUMP JUMPDEST PUSH32 0x506C6179657220322073686F756C64206D616B6520686973206D6F766520696E PUSH1 0x0 DUP3 ADD MSTORE PUSH32 0x206F7264657220746F20736F6C76652074686520726F756E642E000000000000 PUSH1 0x20 DUP3 ADD MSTORE POP JUMP JUMPDEST PUSH1 0x0 PUSH2 0x1380 PUSH1 0x3A DUP4 PUSH2 0xFEC JUMP JUMPDEST SWAP2 POP PUSH2 0x138B DUP3 PUSH2 0x1324 JUMP JUMPDEST PUSH1 0x40 DUP3 ADD SWAP1 POP SWAP2 SWAP1 POP JUMP JUMPDEST PUSH1 0x0 PUSH1 0x20 DUP3 ADD SWAP1 POP DUP2 DUP2 SUB PUSH1 0x0 DUP4 ADD MSTORE PUSH2 0x13AF DUP2 PUSH2 0x1373 JUMP JUMPDEST SWAP1 POP SWAP2 SWAP1 POP JUMP JUMPDEST PUSH32 0x506C6179657220322073686F756C64206D6F76652066697273742E0000000000 PUSH1 0x0 DUP3 ADD MSTORE POP JUMP JUMPDEST PUSH1 0x0 PUSH2 0x13EC PUSH1 0x1B DUP4 PUSH2 0xFEC JUMP JUMPDEST SWAP2 POP PUSH2 0x13F7 DUP3 PUSH2 0x13B6 JUMP JUMPDEST PUSH1 0x20 DUP3 ADD SWAP1 POP SWAP2 SWAP1 POP JUMP JUMPDEST PUSH1 0x0 PUSH1 0x20 DUP3 ADD SWAP1 POP DUP2 DUP2 SUB PUSH1 0x0 DUP4 ADD MSTORE PUSH2 0x141B DUP2 PUSH2 0x13DF JUMP JUMPDEST SWAP1 POP SWAP2 SWAP1 POP JUMP JUMPDEST PUSH1 0x0 DUP2 PUSH1 0xF8 SHL SWAP1 POP SWAP2 SWAP1 POP JUMP JUMPDEST PUSH1 0x0 PUSH2 0x143A DUP3 PUSH2 0x1422 JUMP JUMPDEST SWAP1 POP SWAP2 SWAP1 POP JUMP JUMPDEST PUSH2 0x1452 PUSH2 0x144D DUP3 PUSH2 0xE5D JUMP JUMPDEST PUSH2 0x142F JUMP JUMPDEST DUP3 MSTORE POP POP JUMP JUMPDEST PUSH1 0x0 DUP2 SWAP1 POP SWAP2 SWAP1 POP JUMP JUMPDEST PUSH2 0x1473 PUSH2 0x146E DUP3 PUSH2 0xE99 JUMP JUMPDEST PUSH2 0x1458 JUMP JUMPDEST DUP3 MSTORE POP POP JUMP JUMPDEST PUSH1 0x0 PUSH2 0x1485 DUP3 DUP6 PUSH2 0x1441 JUMP JUMPDEST PUSH1 0x1 DUP3 ADD SWAP2 POP PUSH2 0x1495 DUP3 DUP5 PUSH2 0x1462 JUMP JUMPDEST PUSH1 0x20 DUP3 ADD SWAP2 POP DUP2 SWAP1 POP SWAP4 SWAP3 POP POP POP JUMP JUMPDEST PUSH32 0x546865206578706F7365642076616C7565206973206E6F742074686520686173 PUSH1 0x0 DUP3 ADD MSTORE PUSH32 0x686564206F6E6521000000000000000000000000000000000000000000000000 PUSH1 0x20 DUP3 ADD MSTORE POP JUMP JUMPDEST PUSH1 0x0 PUSH2 0x1501 PUSH1 0x28 DUP4 PUSH2 0xFEC JUMP JUMPDEST SWAP2 POP PUSH2 0x150C DUP3 PUSH2 0x14A5 JUMP JUMPDEST PUSH1 0x40 DUP3 ADD SWAP1 POP SWAP2 SWAP1 POP JUMP JUMPDEST PUSH1 0x0 PUSH1 0x20 DUP3 ADD SWAP1 POP DUP2 DUP2 SUB PUSH1 0x0 DUP4 ADD MSTORE PUSH2 0x1530 DUP2 PUSH2 0x14F4 JUMP JUMPDEST SWAP1 POP SWAP2 SWAP1 POP JUMP JUMPDEST PUSH32 0x57696E6E657220697320616C72656164792064657465726D696E65642E000000 PUSH1 0x0 DUP3 ADD MSTORE POP JUMP JUMPDEST PUSH1 0x0 PUSH2 0x156D PUSH1 0x1D DUP4 PUSH2 0xFEC JUMP JUMPDEST SWAP2 POP PUSH2 0x1578 DUP3 PUSH2 0x1537 JUMP JUMPDEST PUSH1 0x20 DUP3 ADD SWAP1 POP SWAP2 SWAP1 POP JUMP JUMPDEST PUSH1 0x0 PUSH1 0x20 DUP3 ADD SWAP1 POP DUP2 DUP2 SUB PUSH1 0x0 DUP4 ADD MSTORE PUSH2 0x159C DUP2 PUSH2 0x1560 JUMP JUMPDEST SWAP1 POP SWAP2 SWAP1 POP JUMP JUMPDEST PUSH32 0x4E487B7100000000000000000000000000000000000000000000000000000000 PUSH1 0x0 MSTORE PUSH1 0x12 PUSH1 0x4 MSTORE PUSH1 0x24 PUSH1 0x0 REVERT JUMPDEST PUSH1 0x0 PUSH2 0x15DD DUP3 PUSH2 0xE99 JUMP JUMPDEST SWAP2 POP PUSH2 0x15E8 DUP4 PUSH2 0xE99 JUMP JUMPDEST SWAP3 POP DUP3 PUSH2 0x15F8 JUMPI PUSH2 0x15F7 PUSH2 0x15A3 JUMP JUMPDEST JUMPDEST DUP3 DUP3 MOD SWAP1 POP SWAP3 SWAP2 POP POP JUMP INVALID LOG2 PUSH5 0x6970667358 0x22 SLT KECCAK256 DUP2 0x23 PUSH12 0x71F6EAE25CCA18BC4E9E850C DUP6 0xE SWAP6 MSTORE8 SWAP8 JUMP KECCAK256 0xC9 0x2D PUSH27 0x1629B88320369864736F6C634300080C0033000000000000000000 "},"methodIdentifiers":{"TIMEOUT_IN_MS()":"7a6206b0","claimTimeout()":"0e1da6c3","lastTimePlayed()":"470a67f2","move1()":"33d85d44","move2()":"c78eb546","play(uint8)":"53a04b05","player1()":"d30895e4","player2()":"59a5f12d","solve(uint8,uint256)":"a5ddec7c","stake()":"3a4b66f1"}}}}}