{
  "_format": "hh-sol-artifact-1",
  "contractName": "RPSLSFactory",
  "sourceName": "contracts/RPSLSFactory.sol",
  "abi": [
    {
      "inputs": [
        {
          "internalType": "bytes32",
          "name": "_move1Hash",
          "type": "bytes32"
        },
        {
          "internalType": "address",
          "name": "_player2",
          "type": "address"
        }
      ],
      "name": "createGameSession",
      "outputs": [
        {
          "internalType": "contract RPSLS",
          "name": "",
          "type": "address"
        }
      ],
      "stateMutability": "payable",
      "type": "function"
    },
    {
      "inputs": [],
      "name": "getGameSessions",
      "outputs": [
        {
          "internalType": "contract RPSLS[]",
          "name": "_gameSessions",
          "type": "address[]"
        }
      ],
      "stateMutability": "view",
      "type": "function"
    }
  ],
  "bytecode": "0x608060405234801561001057600080fd5b50611e23806100206000396000f3fe6080604052600436106100295760003560e01c80637dd8f4a81461002e578063e00838b11461005e575b600080fd5b610048600480360381019061004391906103e6565b610089565b6040516100559190610485565b60405180910390f35b34801561006a57600080fd5b50610073610275565b604051610080919061055e565b60405180910390f35b6000803484338560405161009c90610340565b6100a89392919061059e565b6040518091039082f09050801580156100c5573d6000803e3d6000fd5b5090506000819080600181540180825580915050600190039060005260206000200160009091909190916101000a81548173ffffffffffffffffffffffffffffffffffffffff021916908373ffffffffffffffffffffffffffffffffffffffff160217905550600160003373ffffffffffffffffffffffffffffffffffffffff1673ffffffffffffffffffffffffffffffffffffffff168152602001908152602001600020819080600181540180825580915050600190039060005260206000200160009091909190916101000a81548173ffffffffffffffffffffffffffffffffffffffff021916908373ffffffffffffffffffffffffffffffffffffffff160217905550600160008473ffffffffffffffffffffffffffffffffffffffff1673ffffffffffffffffffffffffffffffffffffffff168152602001908152602001600020819080600181540180825580915050600190039060005260206000200160009091909190916101000a81548173ffffffffffffffffffffffffffffffffffffffff021916908373ffffffffffffffffffffffffffffffffffffffff1602179055508091505092915050565b6060600160003373ffffffffffffffffffffffffffffffffffffffff1673ffffffffffffffffffffffffffffffffffffffff16815260200190815260200160002080548060200260200160405190810160405280929190818152602001828054801561033657602002820191906000526020600020905b8160009054906101000a900473ffffffffffffffffffffffffffffffffffffffff1673ffffffffffffffffffffffffffffffffffffffff16815260200190600101908083116102ec575b5050505050905090565b611818806105d683390190565b600080fd5b6000819050919050565b61036581610352565b811461037057600080fd5b50565b6000813590506103828161035c565b92915050565b600073ffffffffffffffffffffffffffffffffffffffff82169050919050565b60006103b382610388565b9050919050565b6103c3816103a8565b81146103ce57600080fd5b50565b6000813590506103e0816103ba565b92915050565b600080604083850312156103fd576103fc61034d565b5b600061040b85828601610373565b925050602061041c858286016103d1565b9150509250929050565b6000819050919050565b600061044b61044661044184610388565b610426565b610388565b9050919050565b600061045d82610430565b9050919050565b600061046f82610452565b9050919050565b61047f81610464565b82525050565b600060208201905061049a6000830184610476565b92915050565b600081519050919050565b600082825260208201905092915050565b6000819050602082019050919050565b6104d581610464565b82525050565b60006104e783836104cc565b60208301905092915050565b6000602082019050919050565b600061050b826104a0565b61051581856104ab565b9350610520836104bc565b8060005b8381101561055157815161053888826104db565b9750610543836104f3565b925050600181019050610524565b5085935050505092915050565b600060208201905081810360008301526105788184610500565b905092915050565b61058981610352565b82525050565b610598816103a8565b82525050565b60006060820190506105b36000830186610580565b6105c0602083018561058f565b6105cd604083018461058f565b94935050505056fe608060405261012c600555604051620018183803806200181883398181016040528101906200002f919062000173565b3460048190555082600281905550816000806101000a81548173ffffffffffffffffffffffffffffffffffffffff021916908373ffffffffffffffffffffffffffffffffffffffff16021790555080600160006101000a81548173ffffffffffffffffffffffffffffffffffffffff021916908373ffffffffffffffffffffffffffffffffffffffff16021790555042600681905550505050620001cf565b600080fd5b6000819050919050565b620000e881620000d3565b8114620000f457600080fd5b50565b6000815190506200010881620000dd565b92915050565b600073ffffffffffffffffffffffffffffffffffffffff82169050919050565b60006200013b826200010e565b9050919050565b6200014d816200012e565b81146200015957600080fd5b50565b6000815190506200016d8162000142565b92915050565b6000806000606084860312156200018f576200018e620000ce565b5b60006200019f86828701620000f7565b9350506020620001b2868287016200015c565b9250506040620001c5868287016200015c565b9150509250925092565b61163980620001df6000396000f3fe6080604052600436106100915760003560e01c806359a5f12d1161005957806359a5f12d1461014a5780637a6206b014610175578063a5ddec7c146101a0578063c78eb546146101c9578063d30895e4146101f457610091565b80630e1da6c31461009657806333d85d44146100ad5780633a4b66f1146100d8578063470a67f21461010357806353a04b051461012e575b600080fd5b3480156100a257600080fd5b506100ab61021f565b005b3480156100b957600080fd5b506100c26105b0565b6040516100cf9190610e7e565b60405180910390f35b3480156100e457600080fd5b506100ed6105c3565b6040516100fa9190610eb2565b60405180910390f35b34801561010f57600080fd5b506101186105c9565b6040516101259190610eb2565b60405180910390f35b61014860048036038101906101439190610ef7565b6105cf565b005b34801561015657600080fd5b5061015f610717565b60405161016c9190610f65565b60405180910390f35b34801561018157600080fd5b5061018a61073d565b6040516101979190610eb2565b60405180910390f35b3480156101ac57600080fd5b506101c760048036038101906101c29190610fac565b610743565b005b3480156101d557600080fd5b506101de610cc1565b6040516101eb9190610e7e565b60405180910390f35b34801561020057600080fd5b50610209610cd4565b6040516102169190610f65565b60405180910390f35b60008054906101000a900473ffffffffffffffffffffffffffffffffffffffff1673ffffffffffffffffffffffffffffffffffffffff163373ffffffffffffffffffffffffffffffffffffffff1614806102c65750600160009054906101000a900473ffffffffffffffffffffffffffffffffffffffff1673ffffffffffffffffffffffffffffffffffffffff163373ffffffffffffffffffffffffffffffffffffffff16145b610305576040517f08c379a00000000000000000000000000000000000000000000000000000000081526004016102fc9061106f565b60405180910390fd5b60055460065461031591906110be565b4210610356576040517f08c379a000000000000000000000000000000000000000000000000000000000815260040161034d90611160565b60405180910390fd5b600060045490506000600481905550600073ffffffffffffffffffffffffffffffffffffffff16600160009054906101000a900473ffffffffffffffffffffffffffffffffffffffff1673ffffffffffffffffffffffffffffffffffffffff1614156104915760008060009054906101000a900473ffffffffffffffffffffffffffffffffffffffff1673ffffffffffffffffffffffffffffffffffffffff166108fc839081150290604051600060405180830381858888f19350505050905080610427578160048190555061048b565b60008054906101000a900473ffffffffffffffffffffffffffffffffffffffff1673ffffffffffffffffffffffffffffffffffffffff167f2000eb25e7c59aeedac9771b33ebc8c82601204b4b5340c4c1338df7c3dafd2460405160405180910390a25b506105ad565b600060058111156104a5576104a4610e07565b5b600360019054906101000a900460ff1660058111156104c7576104c6610e07565b5b146105ac576000600160009054906101000a900473ffffffffffffffffffffffffffffffffffffffff1673ffffffffffffffffffffffffffffffffffffffff166108fc6002846105179190611180565b9081150290604051600060405180830381858888f1935050505090508061054457816004819055506105aa565b600160009054906101000a900473ffffffffffffffffffffffffffffffffffffffff1673ffffffffffffffffffffffffffffffffffffffff167f2000eb25e7c59aeedac9771b33ebc8c82601204b4b5340c4c1338df7c3dafd2460405160405180910390a25b505b5b50565b600360009054906101000a900460ff1681565b60045481565b60065481565b6004543414610613576040517f08c379a000000000000000000000000000000000000000000000000000000000815260040161060a90611298565b60405180910390fd5b600160009054906101000a900473ffffffffffffffffffffffffffffffffffffffff1673ffffffffffffffffffffffffffffffffffffffff163373ffffffffffffffffffffffffffffffffffffffff161461066d57600080fd5b6000600581111561068157610680610e07565b5b600360019054906101000a900460ff1660058111156106a3576106a2610e07565b5b146106e3576040517f08c379a00000000000000000000000000000000000000000000000000000000081526004016106da90611304565b60405180910390fd5b80600360016101000a81548160ff0219169083600581111561070857610707610e07565b5b02179055504260068190555050565b600160009054906101000a900473ffffffffffffffffffffffffffffffffffffffff1681565b60055481565b60008054906101000a900473ffffffffffffffffffffffffffffffffffffffff1673ffffffffffffffffffffffffffffffffffffffff163373ffffffffffffffffffffffffffffffffffffffff161461079b57600080fd5b600073ffffffffffffffffffffffffffffffffffffffff16600160009054906101000a900473ffffffffffffffffffffffffffffffffffffffff1673ffffffffffffffffffffffffffffffffffffffff16141561082d576040517f08c379a000000000000000000000000000000000000000000000000000000000815260040161082490611396565b60405180910390fd5b6000600581111561084157610840610e07565b5b600360019054906101000a900460ff16600581111561086357610862610e07565b5b14156108a4576040517f08c379a000000000000000000000000000000000000000000000000000000000815260040161089b90611402565b60405180910390fd5b60025482826040516020016108ba929190611479565b6040516020818303038152906040528051906020012014610910576040517f08c379a000000000000000000000000000000000000000000000000000000000815260040161090790611517565b60405180910390fd5b600060045411610955576040517f08c379a000000000000000000000000000000000000000000000000000000000815260040161094c90611583565b60405180910390fd5b81600360006101000a81548160ff0219169083600581111561097a57610979610e07565b5b0217905550600060045490506109ae600360009054906101000a900460ff16600360019054906101000a900460ff16610cf8565b15610a9c57600060048190555060008060009054906101000a900473ffffffffffffffffffffffffffffffffffffffff1673ffffffffffffffffffffffffffffffffffffffff166108fc836002610a059190611180565b9081150290604051600060405180830381858888f19350505050905080610a325781600481905550610a96565b60008054906101000a900473ffffffffffffffffffffffffffffffffffffffff1673ffffffffffffffffffffffffffffffffffffffff167f53509893162d468df35dea1b35dcc82efcdba39f034428814f342839be56ddce60405160405180910390a25b50610cbc565b610ac4600360009054906101000a900460ff16600360019054906101000a900460ff16610cf8565b15610bb55760006004819055506000600160009054906101000a900473ffffffffffffffffffffffffffffffffffffffff1673ffffffffffffffffffffffffffffffffffffffff166108fc836002610b1c9190611180565b9081150290604051600060405180830381858888f19350505050905080610b495781600481905550610baf565b600160009054906101000a900473ffffffffffffffffffffffffffffffffffffffff1673ffffffffffffffffffffffffffffffffffffffff167f53509893162d468df35dea1b35dcc82efcdba39f034428814f342839be56ddce60405160405180910390a25b50610cbb565b60006004819055506000600160009054906101000a900473ffffffffffffffffffffffffffffffffffffffff1673ffffffffffffffffffffffffffffffffffffffff166108fc839081150290604051600060405180830381858888f19350505050905060008060009054906101000a900473ffffffffffffffffffffffffffffffffffffffff1673ffffffffffffffffffffffffffffffffffffffff166108fc849081150290604051600060405180830381858888f1935050505090508180610c7b5750805b610c8b5782600481905550610cb8565b7f518c48f6356ad4fc6a3d373979965b4396a1c578eaabff2e7f7ce750e367e8f660405160405180910390a15b50505b5b505050565b600360019054906101000a900460ff1681565b60008054906101000a900473ffffffffffffffffffffffffffffffffffffffff1681565b6000816005811115610d0d57610d0c610e07565b5b836005811115610d2057610d1f610e07565b5b1415610d2f5760009050610e01565b60006005811115610d4357610d42610e07565b5b836005811115610d5657610d55610e07565b5b1415610d655760009050610e01565b6002826005811115610d7a57610d79610e07565b5b610d8491906115d2565b6002846005811115610d9957610d98610e07565b5b610da391906115d2565b1415610dd757816005811115610dbc57610dbb610e07565b5b836005811115610dcf57610dce610e07565b5b109050610e01565b816005811115610dea57610de9610e07565b5b836005811115610dfd57610dfc610e07565b5b1190505b92915050565b7f4e487b7100000000000000000000000000000000000000000000000000000000600052602160045260246000fd5b60068110610e4757610e46610e07565b5b50565b6000819050610e5882610e36565b919050565b6000610e6882610e4a565b9050919050565b610e7881610e5d565b82525050565b6000602082019050610e936000830184610e6f565b92915050565b6000819050919050565b610eac81610e99565b82525050565b6000602082019050610ec76000830184610ea3565b92915050565b600080fd5b60068110610edf57600080fd5b50565b600081359050610ef181610ed2565b92915050565b600060208284031215610f0d57610f0c610ecd565b5b6000610f1b84828501610ee2565b91505092915050565b600073ffffffffffffffffffffffffffffffffffffffff82169050919050565b6000610f4f82610f24565b9050919050565b610f5f81610f44565b82525050565b6000602082019050610f7a6000830184610f56565b92915050565b610f8981610e99565b8114610f9457600080fd5b50565b600081359050610fa681610f80565b92915050565b60008060408385031215610fc357610fc2610ecd565b5b6000610fd185828601610ee2565b9250506020610fe285828601610f97565b9150509250929050565b600082825260208201905092915050565b7f596f75277265206e6f74206120706c61796572206f6620746869732067616d6560008201527f2e00000000000000000000000000000000000000000000000000000000000000602082015250565b6000611059602183610fec565b915061106482610ffd565b604082019050919050565b600060208201905081810360008301526110888161104c565b9050919050565b7f4e487b7100000000000000000000000000000000000000000000000000000000600052601160045260246000fd5b60006110c982610e99565b91506110d483610e99565b9250827fffffffffffffffffffffffffffffffffffffffffffffffffffffffffffffffff038211156111095761110861108f565b5b828201905092915050565b7f54696d6520686173206e6f742072756e206f7574207965742e00000000000000600082015250565b600061114a601983610fec565b915061115582611114565b602082019050919050565b600060208201905081810360008301526111798161113d565b9050919050565b600061118b82610e99565b915061119683610e99565b9250817fffffffffffffffffffffffffffffffffffffffffffffffffffffffffffffffff04831182151516156111cf576111ce61108f565b5b828202905092915050565b7f496e73756666696369656e742066756e647320666f72206d6f76652e204d616b60008201527f65207375726520796f75207374616b652074686520726571756972656420616d60208201527f6f756e74206f662045544820666f7220746865207472616e73616374696f6e2060408201527f746f20737563636565642e000000000000000000000000000000000000000000606082015250565b6000611282606b83610fec565b915061128d826111da565b608082019050919050565b600060208201905081810360008301526112b181611275565b9050919050565b7f4d6f766520616c726561647920706c6179656400000000000000000000000000600082015250565b60006112ee601383610fec565b91506112f9826112b8565b602082019050919050565b6000602082019050818103600083015261131d816112e1565b9050919050565b7f506c6179657220322073686f756c64206d616b6520686973206d6f766520696e60008201527f206f7264657220746f20736f6c76652074686520726f756e642e000000000000602082015250565b6000611380603a83610fec565b915061138b82611324565b604082019050919050565b600060208201905081810360008301526113af81611373565b9050919050565b7f506c6179657220322073686f756c64206d6f76652066697273742e0000000000600082015250565b60006113ec601b83610fec565b91506113f7826113b6565b602082019050919050565b6000602082019050818103600083015261141b816113df565b9050919050565b60008160f81b9050919050565b600061143a82611422565b9050919050565b61145261144d82610e5d565b61142f565b82525050565b6000819050919050565b61147361146e82610e99565b611458565b82525050565b60006114858285611441565b6001820191506114958284611462565b6020820191508190509392505050565b7f546865206578706f7365642076616c7565206973206e6f74207468652068617360008201527f686564206f6e6521000000000000000000000000000000000000000000000000602082015250565b6000611501602883610fec565b915061150c826114a5565b604082019050919050565b60006020820190508181036000830152611530816114f4565b9050919050565b7f57696e6e657220697320616c72656164792064657465726d696e65642e000000600082015250565b600061156d601d83610fec565b915061157882611537565b602082019050919050565b6000602082019050818103600083015261159c81611560565b9050919050565b7f4e487b7100000000000000000000000000000000000000000000000000000000600052601260045260246000fd5b60006115dd82610e99565b91506115e883610e99565b9250826115f8576115f76115a3565b5b82820690509291505056fea264697066735822122081236b71f6eae25cca18bc4e9e850c850e9553975620c92d7a1629b88320369864736f6c634300080c0033a2646970667358221220ce2b6b45611a1b42ede2b4d99c7429be71c182399b68f426e32d62b3feb1504364736f6c634300080c0033",
  "linkReferences": {},
  "deployedLinkReferences": {}
}