{
  "_format": "hh-sol-artifact-1",
  "contractName": "RPSLSFactory",
  "sourceName": "contracts/RPSLSFactory.sol",
  "abi": [
    {
      "inputs": [
        {
          "internalType": "bytes32",
          "name": "_move1Hash",
          "type": "bytes32"
        },
        {
          "internalType": "address",
          "name": "_player2",
          "type": "address"
        }
      ],
      "name": "createFoundation",
      "outputs": [],
      "stateMutability": "payable",
      "type": "function"
    },
    {
      "inputs": [],
      "name": "getGameSessions",
      "outputs": [
        {
          "internalType": "contract RPSLS[]",
          "name": "_gameSessions",
          "type": "address[]"
        }
      ],
      "stateMutability": "view",
      "type": "function"
    }
  ],
  "bytecode": "0x608060405234801561001057600080fd5b50611c17806100206000396000f3fe6080604052600436106100295760003560e01c80630f23038a1461002e578063e00838b11461004a575b600080fd5b610048600480360381019061004391906103cc565b610075565b005b34801561005657600080fd5b5061005f61025b565b60405161006c919061051a565b60405180910390f35b60003483338460405161008790610326565b6100939392919061055a565b6040518091039082f09050801580156100b0573d6000803e3d6000fd5b5090506000819080600181540180825580915050600190039060005260206000200160009091909190916101000a81548173ffffffffffffffffffffffffffffffffffffffff021916908373ffffffffffffffffffffffffffffffffffffffff160217905550600160003373ffffffffffffffffffffffffffffffffffffffff1673ffffffffffffffffffffffffffffffffffffffff168152602001908152602001600020819080600181540180825580915050600190039060005260206000200160009091909190916101000a81548173ffffffffffffffffffffffffffffffffffffffff021916908373ffffffffffffffffffffffffffffffffffffffff160217905550600160008373ffffffffffffffffffffffffffffffffffffffff1673ffffffffffffffffffffffffffffffffffffffff168152602001908152602001600020819080600181540180825580915050600190039060005260206000200160009091909190916101000a81548173ffffffffffffffffffffffffffffffffffffffff021916908373ffffffffffffffffffffffffffffffffffffffff160217905550505050565b6060600160003373ffffffffffffffffffffffffffffffffffffffff1673ffffffffffffffffffffffffffffffffffffffff16815260200190815260200160002080548060200260200160405190810160405280929190818152602001828054801561031c57602002820191906000526020600020905b8160009054906101000a900473ffffffffffffffffffffffffffffffffffffffff1673ffffffffffffffffffffffffffffffffffffffff16815260200190600101908083116102d2575b5050505050905090565b6116508061059283390190565b600080fd5b6000819050919050565b61034b81610338565b811461035657600080fd5b50565b60008135905061036881610342565b92915050565b600073ffffffffffffffffffffffffffffffffffffffff82169050919050565b60006103998261036e565b9050919050565b6103a98161038e565b81146103b457600080fd5b50565b6000813590506103c6816103a0565b92915050565b600080604083850312156103e3576103e2610333565b5b60006103f185828601610359565b9250506020610402858286016103b7565b9150509250929050565b600081519050919050565b600082825260208201905092915050565b6000819050602082019050919050565b6000819050919050565b600061045d6104586104538461036e565b610438565b61036e565b9050919050565b600061046f82610442565b9050919050565b600061048182610464565b9050919050565b61049181610476565b82525050565b60006104a38383610488565b60208301905092915050565b6000602082019050919050565b60006104c78261040c565b6104d18185610417565b93506104dc83610428565b8060005b8381101561050d5781516104f48882610497565b97506104ff836104af565b9250506001810190506104e0565b5085935050505092915050565b6000602082019050818103600083015261053481846104bc565b905092915050565b61054581610338565b82525050565b6105548161038e565b82525050565b600060608201905061056f600083018661053c565b61057c602083018561054b565b610589604083018461054b565b94935050505056fe608060405261012c600555604051620016503803806200165083398181016040528101906200002f9190620001f8565b730220ae53c8979e3b20c63ba996a69756e83d9a7c73ffffffffffffffffffffffffffffffffffffffff163373ffffffffffffffffffffffffffffffffffffffff1614620000b4576040517f08c379a0000000000000000000000000000000000000000000000000000000008152600401620000ab90620002b5565b60405180910390fd5b3460048190555082600281905550816000806101000a81548173ffffffffffffffffffffffffffffffffffffffff021916908373ffffffffffffffffffffffffffffffffffffffff16021790555080600160006101000a81548173ffffffffffffffffffffffffffffffffffffffff021916908373ffffffffffffffffffffffffffffffffffffffff16021790555042600681905550505050620002d7565b600080fd5b6000819050919050565b6200016d8162000158565b81146200017957600080fd5b50565b6000815190506200018d8162000162565b92915050565b600073ffffffffffffffffffffffffffffffffffffffff82169050919050565b6000620001c08262000193565b9050919050565b620001d281620001b3565b8114620001de57600080fd5b50565b600081519050620001f281620001c7565b92915050565b60008060006060848603121562000214576200021362000153565b5b600062000224868287016200017c565b93505060206200023786828701620001e1565b92505060406200024a86828701620001e1565b9150509250925092565b600082825260208201905092915050565b7f596f75277265206e6f742074686520666163746f727920636f6e74726163742e600082015250565b60006200029d60208362000254565b9150620002aa8262000265565b602082019050919050565b60006020820190508181036000830152620002d0816200028e565b9050919050565b61136980620002e76000396000f3fe6080604052600436106100345760003560e01c80630e1da6c31461003957806353a04b0514610050578063a5ddec7c1461006c575b600080fd5b34801561004557600080fd5b5061004e610095565b005b61006a60048036038101906100659190610c11565b610412565b005b34801561007857600080fd5b50610093600480360381019061008e9190610c74565b61055a565b005b60008054906101000a900473ffffffffffffffffffffffffffffffffffffffff1673ffffffffffffffffffffffffffffffffffffffff163373ffffffffffffffffffffffffffffffffffffffff16148061013c5750600160009054906101000a900473ffffffffffffffffffffffffffffffffffffffff1673ffffffffffffffffffffffffffffffffffffffff163373ffffffffffffffffffffffffffffffffffffffff16145b61017b576040517f08c379a000000000000000000000000000000000000000000000000000000000815260040161017290610d37565b60405180910390fd5b60055460065461018b9190610d86565b42116101cc576040517f08c379a00000000000000000000000000000000000000000000000000000000081526004016101c390610e28565b60405180910390fd5b60006004549050600073ffffffffffffffffffffffffffffffffffffffff16600160009054906101000a900473ffffffffffffffffffffffffffffffffffffffff1673ffffffffffffffffffffffffffffffffffffffff1614156102ff5760008060009054906101000a900473ffffffffffffffffffffffffffffffffffffffff1673ffffffffffffffffffffffffffffffffffffffff166108fc839081150290604051600060405180830381858888f1935050505090508061029557816004819055506102f9565b60008054906101000a900473ffffffffffffffffffffffffffffffffffffffff1673ffffffffffffffffffffffffffffffffffffffff167f2000eb25e7c59aeedac9771b33ebc8c82601204b4b5340c4c1338df7c3dafd2460405160405180910390a25b5061040f565b6000600581111561031357610312610e48565b5b600360019054906101000a900460ff16600581111561033557610334610e48565b5b1461040e576000600160009054906101000a900473ffffffffffffffffffffffffffffffffffffffff1673ffffffffffffffffffffffffffffffffffffffff166108fc839081150290604051600060405180830381858888f193505050509050806103a6578160048190555061040c565b600160009054906101000a900473ffffffffffffffffffffffffffffffffffffffff1673ffffffffffffffffffffffffffffffffffffffff167f2000eb25e7c59aeedac9771b33ebc8c82601204b4b5340c4c1338df7c3dafd2460405160405180910390a25b505b5b50565b6004543414610456576040517f08c379a000000000000000000000000000000000000000000000000000000000815260040161044d90610f35565b60405180910390fd5b600160009054906101000a900473ffffffffffffffffffffffffffffffffffffffff1673ffffffffffffffffffffffffffffffffffffffff163373ffffffffffffffffffffffffffffffffffffffff16146104b057600080fd5b600060058111156104c4576104c3610e48565b5b600360019054906101000a900460ff1660058111156104e6576104e5610e48565b5b14610526576040517f08c379a000000000000000000000000000000000000000000000000000000000815260040161051d90610fa1565b60405180910390fd5b80600360016101000a81548160ff0219169083600581111561054b5761054a610e48565b5b02179055504260068190555050565b60008054906101000a900473ffffffffffffffffffffffffffffffffffffffff1673ffffffffffffffffffffffffffffffffffffffff163373ffffffffffffffffffffffffffffffffffffffff16146105b257600080fd5b600073ffffffffffffffffffffffffffffffffffffffff16600160009054906101000a900473ffffffffffffffffffffffffffffffffffffffff1673ffffffffffffffffffffffffffffffffffffffff161415610644576040517f08c379a000000000000000000000000000000000000000000000000000000000815260040161063b90611033565b60405180910390fd5b6000600581111561065857610657610e48565b5b600360019054906101000a900460ff16600581111561067a57610679610e48565b5b14156106bb576040517f08c379a00000000000000000000000000000000000000000000000000000000081526004016106b29061109f565b60405180910390fd5b60025482826040516020016106d192919061114f565b6040516020818303038152906040528051906020012014610727576040517f08c379a000000000000000000000000000000000000000000000000000000000815260040161071e906111ed565b60405180910390fd5b60006004541161076c576040517f08c379a000000000000000000000000000000000000000000000000000000000815260040161076390611259565b60405180910390fd5b81600360006101000a81548160ff0219169083600581111561079157610790610e48565b5b0217905550600060045490506107c5600360009054906101000a900460ff16600360019054906101000a900460ff16610ad8565b156108b357600060048190555060008060009054906101000a900473ffffffffffffffffffffffffffffffffffffffff1673ffffffffffffffffffffffffffffffffffffffff166108fc83600261081c9190611279565b9081150290604051600060405180830381858888f1935050505090508061084957816004819055506108ad565b60008054906101000a900473ffffffffffffffffffffffffffffffffffffffff1673ffffffffffffffffffffffffffffffffffffffff167f53509893162d468df35dea1b35dcc82efcdba39f034428814f342839be56ddce60405160405180910390a25b50610ad3565b6108db600360009054906101000a900460ff16600360019054906101000a900460ff16610ad8565b156109cc5760006004819055506000600160009054906101000a900473ffffffffffffffffffffffffffffffffffffffff1673ffffffffffffffffffffffffffffffffffffffff166108fc8360026109339190611279565b9081150290604051600060405180830381858888f1935050505090508061096057816004819055506109c6565b600160009054906101000a900473ffffffffffffffffffffffffffffffffffffffff1673ffffffffffffffffffffffffffffffffffffffff167f53509893162d468df35dea1b35dcc82efcdba39f034428814f342839be56ddce60405160405180910390a25b50610ad2565b60006004819055506000600160009054906101000a900473ffffffffffffffffffffffffffffffffffffffff1673ffffffffffffffffffffffffffffffffffffffff166108fc839081150290604051600060405180830381858888f19350505050905060008060009054906101000a900473ffffffffffffffffffffffffffffffffffffffff1673ffffffffffffffffffffffffffffffffffffffff166108fc849081150290604051600060405180830381858888f1935050505090508180610a925750805b610aa25782600481905550610acf565b7f518c48f6356ad4fc6a3d373979965b4396a1c578eaabff2e7f7ce750e367e8f660405160405180910390a15b50505b5b505050565b6000816005811115610aed57610aec610e48565b5b836005811115610b0057610aff610e48565b5b1415610b0f5760009050610be1565b60006005811115610b2357610b22610e48565b5b836005811115610b3657610b35610e48565b5b1415610b455760009050610be1565b6002826005811115610b5a57610b59610e48565b5b610b649190611302565b6002846005811115610b7957610b78610e48565b5b610b839190611302565b1415610bb757816005811115610b9c57610b9b610e48565b5b836005811115610baf57610bae610e48565b5b109050610be1565b816005811115610bca57610bc9610e48565b5b836005811115610bdd57610bdc610e48565b5b1190505b92915050565b600080fd5b60068110610bf957600080fd5b50565b600081359050610c0b81610bec565b92915050565b600060208284031215610c2757610c26610be7565b5b6000610c3584828501610bfc565b91505092915050565b6000819050919050565b610c5181610c3e565b8114610c5c57600080fd5b50565b600081359050610c6e81610c48565b92915050565b60008060408385031215610c8b57610c8a610be7565b5b6000610c9985828601610bfc565b9250506020610caa85828601610c5f565b9150509250929050565b600082825260208201905092915050565b7f596f75277265206e6f74206120706c61796572206f6620746869732067616d6560008201527f2e00000000000000000000000000000000000000000000000000000000000000602082015250565b6000610d21602183610cb4565b9150610d2c82610cc5565b604082019050919050565b60006020820190508181036000830152610d5081610d14565b9050919050565b7f4e487b7100000000000000000000000000000000000000000000000000000000600052601160045260246000fd5b6000610d9182610c3e565b9150610d9c83610c3e565b9250827fffffffffffffffffffffffffffffffffffffffffffffffffffffffffffffffff03821115610dd157610dd0610d57565b5b828201905092915050565b7f54696d6520686173206e6f742072756e206f7574207965742e00000000000000600082015250565b6000610e12601983610cb4565b9150610e1d82610ddc565b602082019050919050565b60006020820190508181036000830152610e4181610e05565b9050919050565b7f4e487b7100000000000000000000000000000000000000000000000000000000600052602160045260246000fd5b7f496e73756666696369656e742066756e647320666f72206d6f76652e204d616b60008201527f65207375726520796f75207374616b652074686520726571756972656420616d60208201527f6f756e74206f662045544820666f7220746865207472616e73616374696f6e2060408201527f746f20737563636565642e000000000000000000000000000000000000000000606082015250565b6000610f1f606b83610cb4565b9150610f2a82610e77565b608082019050919050565b60006020820190508181036000830152610f4e81610f12565b9050919050565b7f4d6f766520616c726561647920706c6179656400000000000000000000000000600082015250565b6000610f8b601383610cb4565b9150610f9682610f55565b602082019050919050565b60006020820190508181036000830152610fba81610f7e565b9050919050565b7f506c6179657220322073686f756c64206d616b6520686973206d6f766520696e60008201527f206f7264657220746f20736f6c76652074686520726f756e642e000000000000602082015250565b600061101d603a83610cb4565b915061102882610fc1565b604082019050919050565b6000602082019050818103600083015261104c81611010565b9050919050565b7f506c6179657220322073686f756c64206d6f76652066697273742e0000000000600082015250565b6000611089601b83610cb4565b915061109482611053565b602082019050919050565b600060208201905081810360008301526110b88161107c565b9050919050565b600681106110d0576110cf610e48565b5b50565b60008190506110e1826110bf565b919050565b60006110f1826110d3565b9050919050565b60008160f81b9050919050565b6000611110826110f8565b9050919050565b611128611123826110e6565b611105565b82525050565b6000819050919050565b61114961114482610c3e565b61112e565b82525050565b600061115b8285611117565b60018201915061116b8284611138565b6020820191508190509392505050565b7f546865206578706f7365642076616c7565206973206e6f74207468652068617360008201527f686564206f6e6521000000000000000000000000000000000000000000000000602082015250565b60006111d7602883610cb4565b91506111e28261117b565b604082019050919050565b60006020820190508181036000830152611206816111ca565b9050919050565b7f57696e6e657220697320616c72656164792064657465726d696e65642e000000600082015250565b6000611243601d83610cb4565b915061124e8261120d565b602082019050919050565b6000602082019050818103600083015261127281611236565b9050919050565b600061128482610c3e565b915061128f83610c3e565b9250817fffffffffffffffffffffffffffffffffffffffffffffffffffffffffffffffff04831182151516156112c8576112c7610d57565b5b828202905092915050565b7f4e487b7100000000000000000000000000000000000000000000000000000000600052601260045260246000fd5b600061130d82610c3e565b915061131883610c3e565b925082611328576113276112d3565b5b82820690509291505056fea2646970667358221220238b257891550d1dbe7611541b937e4d6078849f5f25aa4c2b44d473519b6db864736f6c634300080c0033a26469706673582212208dddf008f7758cb8045125ac4425e0071fd2475c9024ff7aa23223110b96452d64736f6c634300080c0033",
  "linkReferences": {},
  "deployedLinkReferences": {}
}